{
	"contracts/SampleMapping.sol": {
		"SampleMapping": {
			"abi": [
				{
					"inputs": [],
					"name": "setAddressMapping",
					"outputs": [],
					"stateMutability": "nonpayable",
					"type": "function"
				},
				{
					"inputs": [
						{
							"internalType": "uint256",
							"name": "_index",
							"type": "uint256"
						}
					],
					"name": "setMapping",
					"outputs": [],
					"stateMutability": "nonpayable",
					"type": "function"
				},
				{
					"inputs": [
						{
							"internalType": "uint256",
							"name": "_index1",
							"type": "uint256"
						},
						{
							"internalType": "uint256",
							"name": "_index2",
							"type": "uint256"
						},
						{
							"internalType": "bool",
							"name": "_value",
							"type": "bool"
						}
					],
					"name": "setuint2Uint2Bool",
					"outputs": [],
					"stateMutability": "nonpayable",
					"type": "function"
				},
				{
					"inputs": [
						{
							"internalType": "address",
							"name": "",
							"type": "address"
						}
					],
					"name": "theAddressMapping",
					"outputs": [
						{
							"internalType": "bool",
							"name": "",
							"type": "bool"
						}
					],
					"stateMutability": "view",
					"type": "function"
				},
				{
					"inputs": [
						{
							"internalType": "uint256",
							"name": "",
							"type": "uint256"
						}
					],
					"name": "theMapping",
					"outputs": [
						{
							"internalType": "bool",
							"name": "",
							"type": "bool"
						}
					],
					"stateMutability": "view",
					"type": "function"
				},
				{
					"inputs": [
						{
							"internalType": "uint256",
							"name": "",
							"type": "uint256"
						},
						{
							"internalType": "uint256",
							"name": "",
							"type": "uint256"
						}
					],
					"name": "uint2Uint2Bool",
					"outputs": [
						{
							"internalType": "bool",
							"name": "",
							"type": "bool"
						}
					],
					"stateMutability": "view",
					"type": "function"
				}
			],
			"devdoc": {
				"kind": "dev",
				"methods": {},
				"version": 1
			},
			"evm": {
				"assembly": "    /* \"contracts/SampleMapping.sol\":70:668  contract SampleMapping {... */\n  mstore(0x40, 0x80)\n  callvalue\n  dup1\n  iszero\n  tag_1\n  jumpi\n  0x00\n  dup1\n  revert\ntag_1:\n  pop\n  dataSize(sub_0)\n  dup1\n  dataOffset(sub_0)\n  0x00\n  codecopy\n  0x00\n  return\nstop\n\nsub_0: assembly {\n        /* \"contracts/SampleMapping.sol\":70:668  contract SampleMapping {... */\n      mstore(0x40, 0x80)\n      callvalue\n      dup1\n      iszero\n      tag_1\n      jumpi\n      0x00\n      dup1\n      revert\n    tag_1:\n      pop\n      jumpi(tag_2, lt(calldatasize, 0x04))\n      shr(0xe0, calldataload(0x00))\n      dup1\n      0x37b4ef7d\n      eq\n      tag_3\n      jumpi\n      dup1\n      0x4b903955\n      eq\n      tag_4\n      jumpi\n      dup1\n      0x890fc8e9\n      eq\n      tag_5\n      jumpi\n      dup1\n      0xc7d0fa6c\n      eq\n      tag_6\n      jumpi\n      dup1\n      0xdbc81909\n      eq\n      tag_7\n      jumpi\n      dup1\n      0xe3d23012\n      eq\n      tag_8\n      jumpi\n    tag_2:\n      0x00\n      dup1\n      revert\n        /* \"contracts/SampleMapping.sol\":531:665  function setuint2Uint2Bool (uint _index1, uint _index2, bool _value) public {... */\n    tag_3:\n      tag_9\n      0x04\n      dup1\n      calldatasize\n      sub\n      dup2\n      add\n      swap1\n      tag_10\n      swap2\n      swap1\n      tag_11\n      jump\t// in\n    tag_10:\n      tag_12\n      jump\t// in\n    tag_9:\n      stop\n        /* \"contracts/SampleMapping.sol\":398:488  function setAddressMapping () public {... */\n    tag_4:\n      tag_13\n      tag_14\n      jump\t// in\n    tag_13:\n      stop\n        /* \"contracts/SampleMapping.sol\":145:195  mapping (address => bool) public theAddressMapping */\n    tag_5:\n      tag_15\n      0x04\n      dup1\n      calldatasize\n      sub\n      dup2\n      add\n      swap1\n      tag_16\n      swap2\n      swap1\n      tag_17\n      jump\t// in\n    tag_16:\n      tag_18\n      jump\t// in\n    tag_15:\n      mload(0x40)\n      tag_19\n      swap2\n      swap1\n      tag_20\n      jump\t// in\n    tag_19:\n      mload(0x40)\n      dup1\n      swap2\n      sub\n      swap1\n      return\n        /* \"contracts/SampleMapping.sol\":309:392  function setMapping (uint _index) public {... */\n    tag_6:\n      tag_21\n      0x04\n      dup1\n      calldatasize\n      sub\n      dup2\n      add\n      swap1\n      tag_22\n      swap2\n      swap1\n      tag_23\n      jump\t// in\n    tag_22:\n      tag_24\n      jump\t// in\n    tag_21:\n      stop\n        /* \"contracts/SampleMapping.sol\":99:139  mapping (uint => bool) public theMapping */\n    tag_7:\n      tag_25\n      0x04\n      dup1\n      calldatasize\n      sub\n      dup2\n      add\n      swap1\n      tag_26\n      swap2\n      swap1\n      tag_23\n      jump\t// in\n    tag_26:\n      tag_27\n      jump\t// in\n    tag_25:\n      mload(0x40)\n      tag_28\n      swap2\n      swap1\n      tag_20\n      jump\t// in\n    tag_28:\n      mload(0x40)\n      dup1\n      swap2\n      sub\n      swap1\n      return\n        /* \"contracts/SampleMapping.sol\":202:265  mapping (uint => mapping (uint => bool)) public  uint2Uint2Bool */\n    tag_8:\n      tag_29\n      0x04\n      dup1\n      calldatasize\n      sub\n      dup2\n      add\n      swap1\n      tag_30\n      swap2\n      swap1\n      tag_31\n      jump\t// in\n    tag_30:\n      tag_32\n      jump\t// in\n    tag_29:\n      mload(0x40)\n      tag_33\n      swap2\n      swap1\n      tag_20\n      jump\t// in\n    tag_33:\n      mload(0x40)\n      dup1\n      swap2\n      sub\n      swap1\n      return\n        /* \"contracts/SampleMapping.sol\":531:665  function setuint2Uint2Bool (uint _index1, uint _index2, bool _value) public {... */\n    tag_12:\n        /* \"contracts/SampleMapping.sol\":652:658  _value */\n      dup1\n        /* \"contracts/SampleMapping.sol\":617:631  uint2Uint2Bool */\n      0x02\n        /* \"contracts/SampleMapping.sol\":617:640  uint2Uint2Bool[_index1] */\n      0x00\n        /* \"contracts/SampleMapping.sol\":632:639  _index1 */\n      dup6\n        /* \"contracts/SampleMapping.sol\":617:640  uint2Uint2Bool[_index1] */\n      dup2\n      mstore\n      0x20\n      add\n      swap1\n      dup2\n      mstore\n      0x20\n      add\n      0x00\n      keccak256\n        /* \"contracts/SampleMapping.sol\":617:649  uint2Uint2Bool[_index1][_index2] */\n      0x00\n        /* \"contracts/SampleMapping.sol\":641:648  _index2 */\n      dup5\n        /* \"contracts/SampleMapping.sol\":617:649  uint2Uint2Bool[_index1][_index2] */\n      dup2\n      mstore\n      0x20\n      add\n      swap1\n      dup2\n      mstore\n      0x20\n      add\n      0x00\n      keccak256\n      0x00\n        /* \"contracts/SampleMapping.sol\":617:658  uint2Uint2Bool[_index1][_index2] = _value */\n      0x0100\n      exp\n      dup2\n      sload\n      dup2\n      0xff\n      mul\n      not\n      and\n      swap1\n      dup4\n      iszero\n      iszero\n      mul\n      or\n      swap1\n      sstore\n      pop\n        /* \"contracts/SampleMapping.sol\":531:665  function setuint2Uint2Bool (uint _index1, uint _index2, bool _value) public {... */\n      pop\n      pop\n      pop\n      jump\t// out\n        /* \"contracts/SampleMapping.sol\":398:488  function setAddressMapping () public {... */\n    tag_14:\n        /* \"contracts/SampleMapping.sol\":477:481  true */\n      0x01\n        /* \"contracts/SampleMapping.sol\":445:462  theAddressMapping */\n      dup1\n        /* \"contracts/SampleMapping.sol\":445:474  theAddressMapping[msg.sender] */\n      0x00\n        /* \"contracts/SampleMapping.sol\":463:473  msg.sender */\n      caller\n        /* \"contracts/SampleMapping.sol\":445:474  theAddressMapping[msg.sender] */\n      0xffffffffffffffffffffffffffffffffffffffff\n      and\n      0xffffffffffffffffffffffffffffffffffffffff\n      and\n      dup2\n      mstore\n      0x20\n      add\n      swap1\n      dup2\n      mstore\n      0x20\n      add\n      0x00\n      keccak256\n      0x00\n        /* \"contracts/SampleMapping.sol\":445:481  theAddressMapping[msg.sender] = true */\n      0x0100\n      exp\n      dup2\n      sload\n      dup2\n      0xff\n      mul\n      not\n      and\n      swap1\n      dup4\n      iszero\n      iszero\n      mul\n      or\n      swap1\n      sstore\n      pop\n        /* \"contracts/SampleMapping.sol\":398:488  function setAddressMapping () public {... */\n      jump\t// out\n        /* \"contracts/SampleMapping.sol\":145:195  mapping (address => bool) public theAddressMapping */\n    tag_18:\n      mstore(0x20, 0x01)\n      dup1\n      0x00\n      mstore\n      keccak256(0x00, 0x40)\n      0x00\n      swap2\n      pop\n      sload\n      swap1\n      0x0100\n      exp\n      swap1\n      div\n      0xff\n      and\n      dup2\n      jump\t// out\n        /* \"contracts/SampleMapping.sol\":309:392  function setMapping (uint _index) public {... */\n    tag_24:\n        /* \"contracts/SampleMapping.sol\":381:385  true */\n      0x01\n        /* \"contracts/SampleMapping.sol\":360:370  theMapping */\n      0x00\n        /* \"contracts/SampleMapping.sol\":360:378  theMapping[_index] */\n      dup1\n        /* \"contracts/SampleMapping.sol\":371:377  _index */\n      dup4\n        /* \"contracts/SampleMapping.sol\":360:378  theMapping[_index] */\n      dup2\n      mstore\n      0x20\n      add\n      swap1\n      dup2\n      mstore\n      0x20\n      add\n      0x00\n      keccak256\n      0x00\n        /* \"contracts/SampleMapping.sol\":360:385  theMapping[_index] = true */\n      0x0100\n      exp\n      dup2\n      sload\n      dup2\n      0xff\n      mul\n      not\n      and\n      swap1\n      dup4\n      iszero\n      iszero\n      mul\n      or\n      swap1\n      sstore\n      pop\n        /* \"contracts/SampleMapping.sol\":309:392  function setMapping (uint _index) public {... */\n      pop\n      jump\t// out\n        /* \"contracts/SampleMapping.sol\":99:139  mapping (uint => bool) public theMapping */\n    tag_27:\n      mstore(0x20, 0x00)\n      dup1\n      0x00\n      mstore\n      keccak256(0x00, 0x40)\n      0x00\n      swap2\n      pop\n      sload\n      swap1\n      0x0100\n      exp\n      swap1\n      div\n      0xff\n      and\n      dup2\n      jump\t// out\n        /* \"contracts/SampleMapping.sol\":202:265  mapping (uint => mapping (uint => bool)) public  uint2Uint2Bool */\n    tag_32:\n      mstore(0x20, 0x02)\n      dup2\n      0x00\n      mstore\n      mstore(0x20, keccak256(0x00, 0x40))\n      dup1\n      0x00\n      mstore\n      keccak256(0x00, 0x40)\n      0x00\n      swap2\n      pop\n      swap2\n      pop\n      swap1\n      sload\n      swap1\n      0x0100\n      exp\n      swap1\n      div\n      0xff\n      and\n      dup2\n      jump\t// out\n        /* \"#utility.yul\":88:205   */\n    tag_38:\n        /* \"#utility.yul\":197:198   */\n      0x00\n        /* \"#utility.yul\":194:195   */\n      dup1\n        /* \"#utility.yul\":187:199   */\n      revert\n        /* \"#utility.yul\":334:411   */\n    tag_40:\n        /* \"#utility.yul\":371:378   */\n      0x00\n        /* \"#utility.yul\":400:405   */\n      dup2\n        /* \"#utility.yul\":389:405   */\n      swap1\n      pop\n        /* \"#utility.yul\":334:411   */\n      swap2\n      swap1\n      pop\n      jump\t// out\n        /* \"#utility.yul\":417:539   */\n    tag_41:\n        /* \"#utility.yul\":490:514   */\n      tag_57\n        /* \"#utility.yul\":508:513   */\n      dup2\n        /* \"#utility.yul\":490:514   */\n      tag_40\n      jump\t// in\n    tag_57:\n        /* \"#utility.yul\":483:488   */\n      dup2\n        /* \"#utility.yul\":480:515   */\n      eq\n        /* \"#utility.yul\":470:533   */\n      tag_58\n      jumpi\n        /* \"#utility.yul\":529:530   */\n      0x00\n        /* \"#utility.yul\":526:527   */\n      dup1\n        /* \"#utility.yul\":519:531   */\n      revert\n        /* \"#utility.yul\":470:533   */\n    tag_58:\n        /* \"#utility.yul\":417:539   */\n      pop\n      jump\t// out\n        /* \"#utility.yul\":545:684   */\n    tag_42:\n        /* \"#utility.yul\":591:596   */\n      0x00\n        /* \"#utility.yul\":629:635   */\n      dup2\n        /* \"#utility.yul\":616:636   */\n      calldataload\n        /* \"#utility.yul\":607:636   */\n      swap1\n      pop\n        /* \"#utility.yul\":645:678   */\n      tag_60\n        /* \"#utility.yul\":672:677   */\n      dup2\n        /* \"#utility.yul\":645:678   */\n      tag_41\n      jump\t// in\n    tag_60:\n        /* \"#utility.yul\":545:684   */\n      swap3\n      swap2\n      pop\n      pop\n      jump\t// out\n        /* \"#utility.yul\":690:780   */\n    tag_43:\n        /* \"#utility.yul\":724:731   */\n      0x00\n        /* \"#utility.yul\":767:772   */\n      dup2\n        /* \"#utility.yul\":760:773   */\n      iszero\n        /* \"#utility.yul\":753:774   */\n      iszero\n        /* \"#utility.yul\":742:774   */\n      swap1\n      pop\n        /* \"#utility.yul\":690:780   */\n      swap2\n      swap1\n      pop\n      jump\t// out\n        /* \"#utility.yul\":786:902   */\n    tag_44:\n        /* \"#utility.yul\":856:877   */\n      tag_63\n        /* \"#utility.yul\":871:876   */\n      dup2\n        /* \"#utility.yul\":856:877   */\n      tag_43\n      jump\t// in\n    tag_63:\n        /* \"#utility.yul\":849:854   */\n      dup2\n        /* \"#utility.yul\":846:878   */\n      eq\n        /* \"#utility.yul\":836:896   */\n      tag_64\n      jumpi\n        /* \"#utility.yul\":892:893   */\n      0x00\n        /* \"#utility.yul\":889:890   */\n      dup1\n        /* \"#utility.yul\":882:894   */\n      revert\n        /* \"#utility.yul\":836:896   */\n    tag_64:\n        /* \"#utility.yul\":786:902   */\n      pop\n      jump\t// out\n        /* \"#utility.yul\":908:1041   */\n    tag_45:\n        /* \"#utility.yul\":951:956   */\n      0x00\n        /* \"#utility.yul\":989:995   */\n      dup2\n        /* \"#utility.yul\":976:996   */\n      calldataload\n        /* \"#utility.yul\":967:996   */\n      swap1\n      pop\n        /* \"#utility.yul\":1005:1035   */\n      tag_66\n        /* \"#utility.yul\":1029:1034   */\n      dup2\n        /* \"#utility.yul\":1005:1035   */\n      tag_44\n      jump\t// in\n    tag_66:\n        /* \"#utility.yul\":908:1041   */\n      swap3\n      swap2\n      pop\n      pop\n      jump\t// out\n        /* \"#utility.yul\":1047:1660   */\n    tag_11:\n        /* \"#utility.yul\":1121:1127   */\n      0x00\n        /* \"#utility.yul\":1129:1135   */\n      dup1\n        /* \"#utility.yul\":1137:1143   */\n      0x00\n        /* \"#utility.yul\":1186:1188   */\n      0x60\n        /* \"#utility.yul\":1174:1183   */\n      dup5\n        /* \"#utility.yul\":1165:1172   */\n      dup7\n        /* \"#utility.yul\":1161:1184   */\n      sub\n        /* \"#utility.yul\":1157:1189   */\n      slt\n        /* \"#utility.yul\":1154:1273   */\n      iszero\n      tag_68\n      jumpi\n        /* \"#utility.yul\":1192:1271   */\n      tag_69\n      tag_38\n      jump\t// in\n    tag_69:\n        /* \"#utility.yul\":1154:1273   */\n    tag_68:\n        /* \"#utility.yul\":1312:1313   */\n      0x00\n        /* \"#utility.yul\":1337:1390   */\n      tag_70\n        /* \"#utility.yul\":1382:1389   */\n      dup7\n        /* \"#utility.yul\":1373:1379   */\n      dup3\n        /* \"#utility.yul\":1362:1371   */\n      dup8\n        /* \"#utility.yul\":1358:1380   */\n      add\n        /* \"#utility.yul\":1337:1390   */\n      tag_42\n      jump\t// in\n    tag_70:\n        /* \"#utility.yul\":1327:1390   */\n      swap4\n      pop\n        /* \"#utility.yul\":1283:1400   */\n      pop\n        /* \"#utility.yul\":1439:1441   */\n      0x20\n        /* \"#utility.yul\":1465:1518   */\n      tag_71\n        /* \"#utility.yul\":1510:1517   */\n      dup7\n        /* \"#utility.yul\":1501:1507   */\n      dup3\n        /* \"#utility.yul\":1490:1499   */\n      dup8\n        /* \"#utility.yul\":1486:1508   */\n      add\n        /* \"#utility.yul\":1465:1518   */\n      tag_42\n      jump\t// in\n    tag_71:\n        /* \"#utility.yul\":1455:1518   */\n      swap3\n      pop\n        /* \"#utility.yul\":1410:1528   */\n      pop\n        /* \"#utility.yul\":1567:1569   */\n      0x40\n        /* \"#utility.yul\":1593:1643   */\n      tag_72\n        /* \"#utility.yul\":1635:1642   */\n      dup7\n        /* \"#utility.yul\":1626:1632   */\n      dup3\n        /* \"#utility.yul\":1615:1624   */\n      dup8\n        /* \"#utility.yul\":1611:1633   */\n      add\n        /* \"#utility.yul\":1593:1643   */\n      tag_45\n      jump\t// in\n    tag_72:\n        /* \"#utility.yul\":1583:1643   */\n      swap2\n      pop\n        /* \"#utility.yul\":1538:1653   */\n      pop\n        /* \"#utility.yul\":1047:1660   */\n      swap3\n      pop\n      swap3\n      pop\n      swap3\n      jump\t// out\n        /* \"#utility.yul\":1666:1792   */\n    tag_46:\n        /* \"#utility.yul\":1703:1710   */\n      0x00\n        /* \"#utility.yul\":1743:1785   */\n      0xffffffffffffffffffffffffffffffffffffffff\n        /* \"#utility.yul\":1736:1741   */\n      dup3\n        /* \"#utility.yul\":1732:1786   */\n      and\n        /* \"#utility.yul\":1721:1786   */\n      swap1\n      pop\n        /* \"#utility.yul\":1666:1792   */\n      swap2\n      swap1\n      pop\n      jump\t// out\n        /* \"#utility.yul\":1798:1894   */\n    tag_47:\n        /* \"#utility.yul\":1835:1842   */\n      0x00\n        /* \"#utility.yul\":1864:1888   */\n      tag_75\n        /* \"#utility.yul\":1882:1887   */\n      dup3\n        /* \"#utility.yul\":1864:1888   */\n      tag_46\n      jump\t// in\n    tag_75:\n        /* \"#utility.yul\":1853:1888   */\n      swap1\n      pop\n        /* \"#utility.yul\":1798:1894   */\n      swap2\n      swap1\n      pop\n      jump\t// out\n        /* \"#utility.yul\":1900:2022   */\n    tag_48:\n        /* \"#utility.yul\":1973:1997   */\n      tag_77\n        /* \"#utility.yul\":1991:1996   */\n      dup2\n        /* \"#utility.yul\":1973:1997   */\n      tag_47\n      jump\t// in\n    tag_77:\n        /* \"#utility.yul\":1966:1971   */\n      dup2\n        /* \"#utility.yul\":1963:1998   */\n      eq\n        /* \"#utility.yul\":1953:2016   */\n      tag_78\n      jumpi\n        /* \"#utility.yul\":2012:2013   */\n      0x00\n        /* \"#utility.yul\":2009:2010   */\n      dup1\n        /* \"#utility.yul\":2002:2014   */\n      revert\n        /* \"#utility.yul\":1953:2016   */\n    tag_78:\n        /* \"#utility.yul\":1900:2022   */\n      pop\n      jump\t// out\n        /* \"#utility.yul\":2028:2167   */\n    tag_49:\n        /* \"#utility.yul\":2074:2079   */\n      0x00\n        /* \"#utility.yul\":2112:2118   */\n      dup2\n        /* \"#utility.yul\":2099:2119   */\n      calldataload\n        /* \"#utility.yul\":2090:2119   */\n      swap1\n      pop\n        /* \"#utility.yul\":2128:2161   */\n      tag_80\n        /* \"#utility.yul\":2155:2160   */\n      dup2\n        /* \"#utility.yul\":2128:2161   */\n      tag_48\n      jump\t// in\n    tag_80:\n        /* \"#utility.yul\":2028:2167   */\n      swap3\n      swap2\n      pop\n      pop\n      jump\t// out\n        /* \"#utility.yul\":2173:2502   */\n    tag_17:\n        /* \"#utility.yul\":2232:2238   */\n      0x00\n        /* \"#utility.yul\":2281:2283   */\n      0x20\n        /* \"#utility.yul\":2269:2278   */\n      dup3\n        /* \"#utility.yul\":2260:2267   */\n      dup5\n        /* \"#utility.yul\":2256:2279   */\n      sub\n        /* \"#utility.yul\":2252:2284   */\n      slt\n        /* \"#utility.yul\":2249:2368   */\n      iszero\n      tag_82\n      jumpi\n        /* \"#utility.yul\":2287:2366   */\n      tag_83\n      tag_38\n      jump\t// in\n    tag_83:\n        /* \"#utility.yul\":2249:2368   */\n    tag_82:\n        /* \"#utility.yul\":2407:2408   */\n      0x00\n        /* \"#utility.yul\":2432:2485   */\n      tag_84\n        /* \"#utility.yul\":2477:2484   */\n      dup5\n        /* \"#utility.yul\":2468:2474   */\n      dup3\n        /* \"#utility.yul\":2457:2466   */\n      dup6\n        /* \"#utility.yul\":2453:2475   */\n      add\n        /* \"#utility.yul\":2432:2485   */\n      tag_49\n      jump\t// in\n    tag_84:\n        /* \"#utility.yul\":2422:2485   */\n      swap2\n      pop\n        /* \"#utility.yul\":2378:2495   */\n      pop\n        /* \"#utility.yul\":2173:2502   */\n      swap3\n      swap2\n      pop\n      pop\n      jump\t// out\n        /* \"#utility.yul\":2508:2617   */\n    tag_50:\n        /* \"#utility.yul\":2589:2610   */\n      tag_86\n        /* \"#utility.yul\":2604:2609   */\n      dup2\n        /* \"#utility.yul\":2589:2610   */\n      tag_43\n      jump\t// in\n    tag_86:\n        /* \"#utility.yul\":2584:2587   */\n      dup3\n        /* \"#utility.yul\":2577:2611   */\n      mstore\n        /* \"#utility.yul\":2508:2617   */\n      pop\n      pop\n      jump\t// out\n        /* \"#utility.yul\":2623:2833   */\n    tag_20:\n        /* \"#utility.yul\":2710:2714   */\n      0x00\n        /* \"#utility.yul\":2748:2750   */\n      0x20\n        /* \"#utility.yul\":2737:2746   */\n      dup3\n        /* \"#utility.yul\":2733:2751   */\n      add\n        /* \"#utility.yul\":2725:2751   */\n      swap1\n      pop\n        /* \"#utility.yul\":2761:2826   */\n      tag_88\n        /* \"#utility.yul\":2823:2824   */\n      0x00\n        /* \"#utility.yul\":2812:2821   */\n      dup4\n        /* \"#utility.yul\":2808:2825   */\n      add\n        /* \"#utility.yul\":2799:2805   */\n      dup5\n        /* \"#utility.yul\":2761:2826   */\n      tag_50\n      jump\t// in\n    tag_88:\n        /* \"#utility.yul\":2623:2833   */\n      swap3\n      swap2\n      pop\n      pop\n      jump\t// out\n        /* \"#utility.yul\":2839:3168   */\n    tag_23:\n        /* \"#utility.yul\":2898:2904   */\n      0x00\n        /* \"#utility.yul\":2947:2949   */\n      0x20\n        /* \"#utility.yul\":2935:2944   */\n      dup3\n        /* \"#utility.yul\":2926:2933   */\n      dup5\n        /* \"#utility.yul\":2922:2945   */\n      sub\n        /* \"#utility.yul\":2918:2950   */\n      slt\n        /* \"#utility.yul\":2915:3034   */\n      iszero\n      tag_90\n      jumpi\n        /* \"#utility.yul\":2953:3032   */\n      tag_91\n      tag_38\n      jump\t// in\n    tag_91:\n        /* \"#utility.yul\":2915:3034   */\n    tag_90:\n        /* \"#utility.yul\":3073:3074   */\n      0x00\n        /* \"#utility.yul\":3098:3151   */\n      tag_92\n        /* \"#utility.yul\":3143:3150   */\n      dup5\n        /* \"#utility.yul\":3134:3140   */\n      dup3\n        /* \"#utility.yul\":3123:3132   */\n      dup6\n        /* \"#utility.yul\":3119:3141   */\n      add\n        /* \"#utility.yul\":3098:3151   */\n      tag_42\n      jump\t// in\n    tag_92:\n        /* \"#utility.yul\":3088:3151   */\n      swap2\n      pop\n        /* \"#utility.yul\":3044:3161   */\n      pop\n        /* \"#utility.yul\":2839:3168   */\n      swap3\n      swap2\n      pop\n      pop\n      jump\t// out\n        /* \"#utility.yul\":3174:3648   */\n    tag_31:\n        /* \"#utility.yul\":3242:3248   */\n      0x00\n        /* \"#utility.yul\":3250:3256   */\n      dup1\n        /* \"#utility.yul\":3299:3301   */\n      0x40\n        /* \"#utility.yul\":3287:3296   */\n      dup4\n        /* \"#utility.yul\":3278:3285   */\n      dup6\n        /* \"#utility.yul\":3274:3297   */\n      sub\n        /* \"#utility.yul\":3270:3302   */\n      slt\n        /* \"#utility.yul\":3267:3386   */\n      iszero\n      tag_94\n      jumpi\n        /* \"#utility.yul\":3305:3384   */\n      tag_95\n      tag_38\n      jump\t// in\n    tag_95:\n        /* \"#utility.yul\":3267:3386   */\n    tag_94:\n        /* \"#utility.yul\":3425:3426   */\n      0x00\n        /* \"#utility.yul\":3450:3503   */\n      tag_96\n        /* \"#utility.yul\":3495:3502   */\n      dup6\n        /* \"#utility.yul\":3486:3492   */\n      dup3\n        /* \"#utility.yul\":3475:3484   */\n      dup7\n        /* \"#utility.yul\":3471:3493   */\n      add\n        /* \"#utility.yul\":3450:3503   */\n      tag_42\n      jump\t// in\n    tag_96:\n        /* \"#utility.yul\":3440:3503   */\n      swap3\n      pop\n        /* \"#utility.yul\":3396:3513   */\n      pop\n        /* \"#utility.yul\":3552:3554   */\n      0x20\n        /* \"#utility.yul\":3578:3631   */\n      tag_97\n        /* \"#utility.yul\":3623:3630   */\n      dup6\n        /* \"#utility.yul\":3614:3620   */\n      dup3\n        /* \"#utility.yul\":3603:3612   */\n      dup7\n        /* \"#utility.yul\":3599:3621   */\n      add\n        /* \"#utility.yul\":3578:3631   */\n      tag_42\n      jump\t// in\n    tag_97:\n        /* \"#utility.yul\":3568:3631   */\n      swap2\n      pop\n        /* \"#utility.yul\":3523:3641   */\n      pop\n        /* \"#utility.yul\":3174:3648   */\n      swap3\n      pop\n      swap3\n      swap1\n      pop\n      jump\t// out\n\n    auxdata: 0xa2646970667358221220ef51555fbafb25cd4dd5f1ae08377f67250a0639bc7fdf1c4eed72962f58391d64736f6c634300081a0033\n}\n",
				"bytecode": {
					"linkReferences": {},
					"object": "6080604052348015600e575f80fd5b5061045e8061001c5f395ff3fe608060405234801561000f575f80fd5b5060043610610060575f3560e01c806337b4ef7d146100645780634b90395514610080578063890fc8e91461008a578063c7d0fa6c146100ba578063dbc81909146100d6578063e3d2301214610106575b5f80fd5b61007e600480360381019061007991906102c2565b610136565b005b610088610172565b005b6100a4600480360381019061009f919061036c565b6101c8565b6040516100b191906103a6565b60405180910390f35b6100d460048036038101906100cf91906103bf565b6101e5565b005b6100f060048036038101906100eb91906103bf565b610210565b6040516100fd91906103a6565b60405180910390f35b610120600480360381019061011b91906103ea565b61022c565b60405161012d91906103a6565b60405180910390f35b8060025f8581526020019081526020015f205f8481526020019081526020015f205f6101000a81548160ff021916908315150217905550505050565b6001805f3373ffffffffffffffffffffffffffffffffffffffff1673ffffffffffffffffffffffffffffffffffffffff1681526020019081526020015f205f6101000a81548160ff021916908315150217905550565b6001602052805f5260405f205f915054906101000a900460ff1681565b60015f808381526020019081526020015f205f6101000a81548160ff02191690831515021790555050565b5f602052805f5260405f205f915054906101000a900460ff1681565b6002602052815f5260405f20602052805f5260405f205f915091509054906101000a900460ff1681565b5f80fd5b5f819050919050565b61026c8161025a565b8114610276575f80fd5b50565b5f8135905061028781610263565b92915050565b5f8115159050919050565b6102a18161028d565b81146102ab575f80fd5b50565b5f813590506102bc81610298565b92915050565b5f805f606084860312156102d9576102d8610256565b5b5f6102e686828701610279565b93505060206102f786828701610279565b9250506040610308868287016102ae565b9150509250925092565b5f73ffffffffffffffffffffffffffffffffffffffff82169050919050565b5f61033b82610312565b9050919050565b61034b81610331565b8114610355575f80fd5b50565b5f8135905061036681610342565b92915050565b5f6020828403121561038157610380610256565b5b5f61038e84828501610358565b91505092915050565b6103a08161028d565b82525050565b5f6020820190506103b95f830184610397565b92915050565b5f602082840312156103d4576103d3610256565b5b5f6103e184828501610279565b91505092915050565b5f8060408385031215610400576103ff610256565b5b5f61040d85828601610279565b925050602061041e85828601610279565b915050925092905056fea2646970667358221220ef51555fbafb25cd4dd5f1ae08377f67250a0639bc7fdf1c4eed72962f58391d64736f6c634300081a0033",
					"opcodes": "PUSH1 0x80 PUSH1 0x40 MSTORE CALLVALUE DUP1 ISZERO PUSH1 0xE JUMPI PUSH0 DUP1 REVERT JUMPDEST POP PUSH2 0x45E DUP1 PUSH2 0x1C PUSH0 CODECOPY PUSH0 RETURN INVALID PUSH1 0x80 PUSH1 0x40 MSTORE CALLVALUE DUP1 ISZERO PUSH2 0xF JUMPI PUSH0 DUP1 REVERT JUMPDEST POP PUSH1 0x4 CALLDATASIZE LT PUSH2 0x60 JUMPI PUSH0 CALLDATALOAD PUSH1 0xE0 SHR DUP1 PUSH4 0x37B4EF7D EQ PUSH2 0x64 JUMPI DUP1 PUSH4 0x4B903955 EQ PUSH2 0x80 JUMPI DUP1 PUSH4 0x890FC8E9 EQ PUSH2 0x8A JUMPI DUP1 PUSH4 0xC7D0FA6C EQ PUSH2 0xBA JUMPI DUP1 PUSH4 0xDBC81909 EQ PUSH2 0xD6 JUMPI DUP1 PUSH4 0xE3D23012 EQ PUSH2 0x106 JUMPI JUMPDEST PUSH0 DUP1 REVERT JUMPDEST PUSH2 0x7E PUSH1 0x4 DUP1 CALLDATASIZE SUB DUP2 ADD SWAP1 PUSH2 0x79 SWAP2 SWAP1 PUSH2 0x2C2 JUMP JUMPDEST PUSH2 0x136 JUMP JUMPDEST STOP JUMPDEST PUSH2 0x88 PUSH2 0x172 JUMP JUMPDEST STOP JUMPDEST PUSH2 0xA4 PUSH1 0x4 DUP1 CALLDATASIZE SUB DUP2 ADD SWAP1 PUSH2 0x9F SWAP2 SWAP1 PUSH2 0x36C JUMP JUMPDEST PUSH2 0x1C8 JUMP JUMPDEST PUSH1 0x40 MLOAD PUSH2 0xB1 SWAP2 SWAP1 PUSH2 0x3A6 JUMP JUMPDEST PUSH1 0x40 MLOAD DUP1 SWAP2 SUB SWAP1 RETURN JUMPDEST PUSH2 0xD4 PUSH1 0x4 DUP1 CALLDATASIZE SUB DUP2 ADD SWAP1 PUSH2 0xCF SWAP2 SWAP1 PUSH2 0x3BF JUMP JUMPDEST PUSH2 0x1E5 JUMP JUMPDEST STOP JUMPDEST PUSH2 0xF0 PUSH1 0x4 DUP1 CALLDATASIZE SUB DUP2 ADD SWAP1 PUSH2 0xEB SWAP2 SWAP1 PUSH2 0x3BF JUMP JUMPDEST PUSH2 0x210 JUMP JUMPDEST PUSH1 0x40 MLOAD PUSH2 0xFD SWAP2 SWAP1 PUSH2 0x3A6 JUMP JUMPDEST PUSH1 0x40 MLOAD DUP1 SWAP2 SUB SWAP1 RETURN JUMPDEST PUSH2 0x120 PUSH1 0x4 DUP1 CALLDATASIZE SUB DUP2 ADD SWAP1 PUSH2 0x11B SWAP2 SWAP1 PUSH2 0x3EA JUMP JUMPDEST PUSH2 0x22C JUMP JUMPDEST PUSH1 0x40 MLOAD PUSH2 0x12D SWAP2 SWAP1 PUSH2 0x3A6 JUMP JUMPDEST PUSH1 0x40 MLOAD DUP1 SWAP2 SUB SWAP1 RETURN JUMPDEST DUP1 PUSH1 0x2 PUSH0 DUP6 DUP2 MSTORE PUSH1 0x20 ADD SWAP1 DUP2 MSTORE PUSH1 0x20 ADD PUSH0 KECCAK256 PUSH0 DUP5 DUP2 MSTORE PUSH1 0x20 ADD SWAP1 DUP2 MSTORE PUSH1 0x20 ADD PUSH0 KECCAK256 PUSH0 PUSH2 0x100 EXP DUP2 SLOAD DUP2 PUSH1 0xFF MUL NOT AND SWAP1 DUP4 ISZERO ISZERO MUL OR SWAP1 SSTORE POP POP POP POP JUMP JUMPDEST PUSH1 0x1 DUP1 PUSH0 CALLER PUSH20 0xFFFFFFFFFFFFFFFFFFFFFFFFFFFFFFFFFFFFFFFF AND PUSH20 0xFFFFFFFFFFFFFFFFFFFFFFFFFFFFFFFFFFFFFFFF AND DUP2 MSTORE PUSH1 0x20 ADD SWAP1 DUP2 MSTORE PUSH1 0x20 ADD PUSH0 KECCAK256 PUSH0 PUSH2 0x100 EXP DUP2 SLOAD DUP2 PUSH1 0xFF MUL NOT AND SWAP1 DUP4 ISZERO ISZERO MUL OR SWAP1 SSTORE POP JUMP JUMPDEST PUSH1 0x1 PUSH1 0x20 MSTORE DUP1 PUSH0 MSTORE PUSH1 0x40 PUSH0 KECCAK256 PUSH0 SWAP2 POP SLOAD SWAP1 PUSH2 0x100 EXP SWAP1 DIV PUSH1 0xFF AND DUP2 JUMP JUMPDEST PUSH1 0x1 PUSH0 DUP1 DUP4 DUP2 MSTORE PUSH1 0x20 ADD SWAP1 DUP2 MSTORE PUSH1 0x20 ADD PUSH0 KECCAK256 PUSH0 PUSH2 0x100 EXP DUP2 SLOAD DUP2 PUSH1 0xFF MUL NOT AND SWAP1 DUP4 ISZERO ISZERO MUL OR SWAP1 SSTORE POP POP JUMP JUMPDEST PUSH0 PUSH1 0x20 MSTORE DUP1 PUSH0 MSTORE PUSH1 0x40 PUSH0 KECCAK256 PUSH0 SWAP2 POP SLOAD SWAP1 PUSH2 0x100 EXP SWAP1 DIV PUSH1 0xFF AND DUP2 JUMP JUMPDEST PUSH1 0x2 PUSH1 0x20 MSTORE DUP2 PUSH0 MSTORE PUSH1 0x40 PUSH0 KECCAK256 PUSH1 0x20 MSTORE DUP1 PUSH0 MSTORE PUSH1 0x40 PUSH0 KECCAK256 PUSH0 SWAP2 POP SWAP2 POP SWAP1 SLOAD SWAP1 PUSH2 0x100 EXP SWAP1 DIV PUSH1 0xFF AND DUP2 JUMP JUMPDEST PUSH0 DUP1 REVERT JUMPDEST PUSH0 DUP2 SWAP1 POP SWAP2 SWAP1 POP JUMP JUMPDEST PUSH2 0x26C DUP2 PUSH2 0x25A JUMP JUMPDEST DUP2 EQ PUSH2 0x276 JUMPI PUSH0 DUP1 REVERT JUMPDEST POP JUMP JUMPDEST PUSH0 DUP2 CALLDATALOAD SWAP1 POP PUSH2 0x287 DUP2 PUSH2 0x263 JUMP JUMPDEST SWAP3 SWAP2 POP POP JUMP JUMPDEST PUSH0 DUP2 ISZERO ISZERO SWAP1 POP SWAP2 SWAP1 POP JUMP JUMPDEST PUSH2 0x2A1 DUP2 PUSH2 0x28D JUMP JUMPDEST DUP2 EQ PUSH2 0x2AB JUMPI PUSH0 DUP1 REVERT JUMPDEST POP JUMP JUMPDEST PUSH0 DUP2 CALLDATALOAD SWAP1 POP PUSH2 0x2BC DUP2 PUSH2 0x298 JUMP JUMPDEST SWAP3 SWAP2 POP POP JUMP JUMPDEST PUSH0 DUP1 PUSH0 PUSH1 0x60 DUP5 DUP7 SUB SLT ISZERO PUSH2 0x2D9 JUMPI PUSH2 0x2D8 PUSH2 0x256 JUMP JUMPDEST JUMPDEST PUSH0 PUSH2 0x2E6 DUP7 DUP3 DUP8 ADD PUSH2 0x279 JUMP JUMPDEST SWAP4 POP POP PUSH1 0x20 PUSH2 0x2F7 DUP7 DUP3 DUP8 ADD PUSH2 0x279 JUMP JUMPDEST SWAP3 POP POP PUSH1 0x40 PUSH2 0x308 DUP7 DUP3 DUP8 ADD PUSH2 0x2AE JUMP JUMPDEST SWAP2 POP POP SWAP3 POP SWAP3 POP SWAP3 JUMP JUMPDEST PUSH0 PUSH20 0xFFFFFFFFFFFFFFFFFFFFFFFFFFFFFFFFFFFFFFFF DUP3 AND SWAP1 POP SWAP2 SWAP1 POP JUMP JUMPDEST PUSH0 PUSH2 0x33B DUP3 PUSH2 0x312 JUMP JUMPDEST SWAP1 POP SWAP2 SWAP1 POP JUMP JUMPDEST PUSH2 0x34B DUP2 PUSH2 0x331 JUMP JUMPDEST DUP2 EQ PUSH2 0x355 JUMPI PUSH0 DUP1 REVERT JUMPDEST POP JUMP JUMPDEST PUSH0 DUP2 CALLDATALOAD SWAP1 POP PUSH2 0x366 DUP2 PUSH2 0x342 JUMP JUMPDEST SWAP3 SWAP2 POP POP JUMP JUMPDEST PUSH0 PUSH1 0x20 DUP3 DUP5 SUB SLT ISZERO PUSH2 0x381 JUMPI PUSH2 0x380 PUSH2 0x256 JUMP JUMPDEST JUMPDEST PUSH0 PUSH2 0x38E DUP5 DUP3 DUP6 ADD PUSH2 0x358 JUMP JUMPDEST SWAP2 POP POP SWAP3 SWAP2 POP POP JUMP JUMPDEST PUSH2 0x3A0 DUP2 PUSH2 0x28D JUMP JUMPDEST DUP3 MSTORE POP POP JUMP JUMPDEST PUSH0 PUSH1 0x20 DUP3 ADD SWAP1 POP PUSH2 0x3B9 PUSH0 DUP4 ADD DUP5 PUSH2 0x397 JUMP JUMPDEST SWAP3 SWAP2 POP POP JUMP JUMPDEST PUSH0 PUSH1 0x20 DUP3 DUP5 SUB SLT ISZERO PUSH2 0x3D4 JUMPI PUSH2 0x3D3 PUSH2 0x256 JUMP JUMPDEST JUMPDEST PUSH0 PUSH2 0x3E1 DUP5 DUP3 DUP6 ADD PUSH2 0x279 JUMP JUMPDEST SWAP2 POP POP SWAP3 SWAP2 POP POP JUMP JUMPDEST PUSH0 DUP1 PUSH1 0x40 DUP4 DUP6 SUB SLT ISZERO PUSH2 0x400 JUMPI PUSH2 0x3FF PUSH2 0x256 JUMP JUMPDEST JUMPDEST PUSH0 PUSH2 0x40D DUP6 DUP3 DUP7 ADD PUSH2 0x279 JUMP JUMPDEST SWAP3 POP POP PUSH1 0x20 PUSH2 0x41E DUP6 DUP3 DUP7 ADD PUSH2 0x279 JUMP JUMPDEST SWAP2 POP POP SWAP3 POP SWAP3 SWAP1 POP JUMP INVALID LOG2 PUSH5 0x6970667358 0x22 SLT KECCAK256 0xEF MLOAD SSTORE PUSH0 0xBA 0xFB 0x25 0xCD 0x4D 0xD5 CALL 0xAE ADDMOD CALLDATACOPY PUSH32 0x67250A0639BC7FDF1C4EED72962F58391D64736F6C634300081A003300000000 "
				},
				"gasEstimates": {
					"creation": {
						"codeDepositCost": "223600",
						"executionCost": "261",
						"totalCost": "223861"
					},
					"external": {
						"setAddressMapping()": "24496",
						"setMapping(uint256)": "24787",
						"setuint2Uint2Bool(uint256,uint256,bool)": "infinite",
						"theAddressMapping(address)": "2855",
						"theMapping(uint256)": "2850",
						"uint2Uint2Bool(uint256,uint256)": "infinite"
					}
				},
				"methodIdentifiers": {
					"setAddressMapping()": "4b903955",
					"setMapping(uint256)": "c7d0fa6c",
					"setuint2Uint2Bool(uint256,uint256,bool)": "37b4ef7d",
					"theAddressMapping(address)": "890fc8e9",
					"theMapping(uint256)": "dbc81909",
					"uint2Uint2Bool(uint256,uint256)": "e3d23012"
				}
			},
			"storageLayout": {
				"storage": [
					{
						"astId": 5,
						"contract": "contracts/SampleMapping.sol:SampleMapping",
						"label": "theMapping",
						"offset": 0,
						"slot": "0",
						"type": "t_mapping(t_uint256,t_bool)"
					},
					{
						"astId": 9,
						"contract": "contracts/SampleMapping.sol:SampleMapping",
						"label": "theAddressMapping",
						"offset": 0,
						"slot": "1",
						"type": "t_mapping(t_address,t_bool)"
					},
					{
						"astId": 15,
						"contract": "contracts/SampleMapping.sol:SampleMapping",
						"label": "uint2Uint2Bool",
						"offset": 0,
						"slot": "2",
						"type": "t_mapping(t_uint256,t_mapping(t_uint256,t_bool))"
					}
				],
				"types": {
					"t_address": {
						"encoding": "inplace",
						"label": "address",
						"numberOfBytes": "20"
					},
					"t_bool": {
						"encoding": "inplace",
						"label": "bool",
						"numberOfBytes": "1"
					},
					"t_mapping(t_address,t_bool)": {
						"encoding": "mapping",
						"key": "t_address",
						"label": "mapping(address => bool)",
						"numberOfBytes": "32",
						"value": "t_bool"
					},
					"t_mapping(t_uint256,t_bool)": {
						"encoding": "mapping",
						"key": "t_uint256",
						"label": "mapping(uint256 => bool)",
						"numberOfBytes": "32",
						"value": "t_bool"
					},
					"t_mapping(t_uint256,t_mapping(t_uint256,t_bool))": {
						"encoding": "mapping",
						"key": "t_uint256",
						"label": "mapping(uint256 => mapping(uint256 => bool))",
						"numberOfBytes": "32",
						"value": "t_mapping(t_uint256,t_bool)"
					},
					"t_uint256": {
						"encoding": "inplace",
						"label": "uint256",
						"numberOfBytes": "32"
					}
				}
			},
			"userdoc": {
				"kind": "user",
				"methods": {},
				"version": 1
			}
		}
	}
}