{
	"contracts/SampleStructMapping.sol": {
		"Struct_Mapping": {
			"abi": [
				{
					"inputs": [],
					"name": "Deposit",
					"outputs": [],
					"stateMutability": "payable",
					"type": "function"
				},
				{
					"inputs": [
						{
							"internalType": "address",
							"name": "",
							"type": "address"
						}
					],
					"name": "balances",
					"outputs": [
						{
							"internalType": "uint256",
							"name": "totalBalance",
							"type": "uint256"
						},
						{
							"internalType": "uint256",
							"name": "numDeposits",
							"type": "uint256"
						},
						{
							"internalType": "uint256",
							"name": "numWithdrawals",
							"type": "uint256"
						}
					],
					"stateMutability": "view",
					"type": "function"
				},
				{
					"inputs": [
						{
							"internalType": "address",
							"name": "_from",
							"type": "address"
						},
						{
							"internalType": "uint256",
							"name": "_numDeposit",
							"type": "uint256"
						}
					],
					"name": "getDepositNum",
					"outputs": [
						{
							"components": [
								{
									"internalType": "uint256",
									"name": "amout",
									"type": "uint256"
								},
								{
									"internalType": "uint256",
									"name": "timestamp",
									"type": "uint256"
								}
							],
							"internalType": "struct Struct_Mapping.Transaction",
							"name": "",
							"type": "tuple"
						}
					],
					"stateMutability": "view",
					"type": "function"
				},
				{
					"inputs": [
						{
							"internalType": "address payable",
							"name": "_to",
							"type": "address"
						},
						{
							"internalType": "uint256",
							"name": "_amount",
							"type": "uint256"
						}
					],
					"name": "withdraw",
					"outputs": [],
					"stateMutability": "nonpayable",
					"type": "function"
				}
			],
			"devdoc": {
				"kind": "dev",
				"methods": {},
				"version": 1
			},
			"evm": {
				"assembly": "    /* \"contracts/SampleStructMapping.sol\":70:1279  contract Struct_Mapping  {... */\n  mstore(0x40, 0x80)\n  callvalue\n  dup1\n  iszero\n  tag_1\n  jumpi\n  revert(0x00, 0x00)\ntag_1:\n  pop\n  dataSize(sub_0)\n  dup1\n  dataOffset(sub_0)\n  0x00\n  codecopy\n  0x00\n  return\nstop\n\nsub_0: assembly {\n        /* \"contracts/SampleStructMapping.sol\":70:1279  contract Struct_Mapping  {... */\n      mstore(0x40, 0x80)\n      jumpi(tag_1, lt(calldatasize, 0x04))\n      shr(0xe0, calldataload(0x00))\n      dup1\n      0x27e235e3\n      eq\n      tag_2\n      jumpi\n      dup1\n      0x55e14fe6\n      eq\n      tag_3\n      jumpi\n      dup1\n      0xed21248c\n      eq\n      tag_4\n      jumpi\n      dup1\n      0xf3fef3a3\n      eq\n      tag_5\n      jumpi\n    tag_1:\n      revert(0x00, 0x00)\n        /* \"contracts/SampleStructMapping.sol\":384:428  mapping (address => Balance) public balances */\n    tag_2:\n      callvalue\n      dup1\n      iszero\n      tag_6\n      jumpi\n      revert(0x00, 0x00)\n    tag_6:\n      pop\n      tag_7\n      0x04\n      dup1\n      calldatasize\n      sub\n      dup2\n      add\n      swap1\n      tag_8\n      swap2\n      swap1\n      tag_9\n      jump\t// in\n    tag_8:\n      tag_10\n      jump\t// in\n    tag_7:\n      mload(0x40)\n      tag_11\n      swap4\n      swap3\n      swap2\n      swap1\n      tag_12\n      jump\t// in\n    tag_11:\n      mload(0x40)\n      dup1\n      swap2\n      sub\n      swap1\n      return\n        /* \"contracts/SampleStructMapping.sol\":435:592  function getDepositNum(address _from, uint _numDeposit) public view returns (Transaction memory) {... */\n    tag_3:\n      callvalue\n      dup1\n      iszero\n      tag_13\n      jumpi\n      revert(0x00, 0x00)\n    tag_13:\n      pop\n      tag_14\n      0x04\n      dup1\n      calldatasize\n      sub\n      dup2\n      add\n      swap1\n      tag_15\n      swap2\n      swap1\n      tag_16\n      jump\t// in\n    tag_15:\n      tag_17\n      jump\t// in\n    tag_14:\n      mload(0x40)\n      tag_18\n      swap2\n      swap1\n      tag_19\n      jump\t// in\n    tag_18:\n      mload(0x40)\n      dup1\n      swap2\n      sub\n      swap1\n      return\n        /* \"contracts/SampleStructMapping.sol\":597:901  function Deposit () public payable {... */\n    tag_4:\n      tag_20\n      tag_21\n      jump\t// in\n    tag_20:\n      stop\n        /* \"contracts/SampleStructMapping.sol\":907:1277  function withdraw(address payable _to, uint _amount) public {... */\n    tag_5:\n      callvalue\n      dup1\n      iszero\n      tag_22\n      jumpi\n      revert(0x00, 0x00)\n    tag_22:\n      pop\n      tag_23\n      0x04\n      dup1\n      calldatasize\n      sub\n      dup2\n      add\n      swap1\n      tag_24\n      swap2\n      swap1\n      tag_25\n      jump\t// in\n    tag_24:\n      tag_26\n      jump\t// in\n    tag_23:\n      stop\n        /* \"contracts/SampleStructMapping.sol\":384:428  mapping (address => Balance) public balances */\n    tag_10:\n      mstore(0x20, 0x00)\n      dup1\n      0x00\n      mstore\n      keccak256(0x00, 0x40)\n      0x00\n      swap2\n      pop\n      swap1\n      pop\n      dup1\n      0x00\n      add\n      sload\n      swap1\n      dup1\n      0x01\n      add\n      sload\n      swap1\n      dup1\n      0x03\n      add\n      sload\n      swap1\n      pop\n      dup4\n      jump\t// out\n        /* \"contracts/SampleStructMapping.sol\":435:592  function getDepositNum(address _from, uint _numDeposit) public view returns (Transaction memory) {... */\n    tag_17:\n        /* \"contracts/SampleStructMapping.sol\":512:530  Transaction memory */\n      tag_27\n      tag_28\n      jump\t// in\n    tag_27:\n        /* \"contracts/SampleStructMapping.sol\":549:557  balances */\n      0x00\n        /* \"contracts/SampleStructMapping.sol\":549:564  balances[_from] */\n      0x00\n        /* \"contracts/SampleStructMapping.sol\":558:563  _from */\n      dup5\n        /* \"contracts/SampleStructMapping.sol\":549:564  balances[_from] */\n      0xffffffffffffffffffffffffffffffffffffffff\n      and\n      0xffffffffffffffffffffffffffffffffffffffff\n      and\n      dup2\n      mstore\n      0x20\n      add\n      swap1\n      dup2\n      mstore\n      0x20\n      add\n      0x00\n      keccak256\n        /* \"contracts/SampleStructMapping.sol\":549:572  balances[_from].deposit */\n      0x02\n      add\n        /* \"contracts/SampleStructMapping.sol\":549:585  balances[_from].deposit[_numDeposit] */\n      0x00\n        /* \"contracts/SampleStructMapping.sol\":573:584  _numDeposit */\n      dup4\n        /* \"contracts/SampleStructMapping.sol\":549:585  balances[_from].deposit[_numDeposit] */\n      dup2\n      mstore\n      0x20\n      add\n      swap1\n      dup2\n      mstore\n      0x20\n      add\n      0x00\n      keccak256\n        /* \"contracts/SampleStructMapping.sol\":542:585  return balances[_from].deposit[_numDeposit] */\n      mload(0x40)\n      dup1\n      0x40\n      add\n      0x40\n      mstore\n      swap1\n      dup2\n      0x00\n      dup3\n      add\n      sload\n      dup2\n      mstore\n      0x20\n      add\n      0x01\n      dup3\n      add\n      sload\n      dup2\n      mstore\n      pop\n      pop\n      swap1\n      pop\n        /* \"contracts/SampleStructMapping.sol\":435:592  function getDepositNum(address _from, uint _numDeposit) public view returns (Transaction memory) {... */\n      swap3\n      swap2\n      pop\n      pop\n      jump\t// out\n        /* \"contracts/SampleStructMapping.sol\":597:901  function Deposit () public payable {... */\n    tag_21:\n        /* \"contracts/SampleStructMapping.sol\":679:688  msg.value */\n      callvalue\n        /* \"contracts/SampleStructMapping.sol\":642:650  balances */\n      0x00\n        /* \"contracts/SampleStructMapping.sol\":642:662  balances[msg.sender] */\n      0x00\n        /* \"contracts/SampleStructMapping.sol\":651:661  msg.sender */\n      caller\n        /* \"contracts/SampleStructMapping.sol\":642:662  balances[msg.sender] */\n      0xffffffffffffffffffffffffffffffffffffffff\n      and\n      0xffffffffffffffffffffffffffffffffffffffff\n      and\n      dup2\n      mstore\n      0x20\n      add\n      swap1\n      dup2\n      mstore\n      0x20\n      add\n      0x00\n      keccak256\n        /* \"contracts/SampleStructMapping.sol\":642:675  balances[msg.sender].totalBalance */\n      0x00\n      add\n      0x00\n        /* \"contracts/SampleStructMapping.sol\":642:688  balances[msg.sender].totalBalance += msg.value */\n      dup3\n      dup3\n      sload\n      tag_31\n      swap2\n      swap1\n      tag_32\n      jump\t// in\n    tag_31:\n      swap3\n      pop\n      pop\n      dup2\n      swap1\n      sstore\n      pop\n        /* \"contracts/SampleStructMapping.sol\":699:725  Transaction memory deposit */\n      0x00\n        /* \"contracts/SampleStructMapping.sol\":728:767  Transaction(msg.value, block.timestamp) */\n      mload(0x40)\n      dup1\n      0x40\n      add\n      0x40\n      mstore\n      dup1\n        /* \"contracts/SampleStructMapping.sol\":740:749  msg.value */\n      callvalue\n        /* \"contracts/SampleStructMapping.sol\":728:767  Transaction(msg.value, block.timestamp) */\n      dup2\n      mstore\n      0x20\n      add\n        /* \"contracts/SampleStructMapping.sol\":751:766  block.timestamp */\n      timestamp\n        /* \"contracts/SampleStructMapping.sol\":728:767  Transaction(msg.value, block.timestamp) */\n      dup2\n      mstore\n      pop\n        /* \"contracts/SampleStructMapping.sol\":699:767  Transaction memory deposit = Transaction(msg.value, block.timestamp) */\n      swap1\n      pop\n        /* \"contracts/SampleStructMapping.sol\":842:849  deposit */\n      dup1\n        /* \"contracts/SampleStructMapping.sol\":777:785  balances */\n      0x00\n        /* \"contracts/SampleStructMapping.sol\":777:797  balances[msg.sender] */\n      0x00\n        /* \"contracts/SampleStructMapping.sol\":786:796  msg.sender */\n      caller\n        /* \"contracts/SampleStructMapping.sol\":777:797  balances[msg.sender] */\n      0xffffffffffffffffffffffffffffffffffffffff\n      and\n      0xffffffffffffffffffffffffffffffffffffffff\n      and\n      dup2\n      mstore\n      0x20\n      add\n      swap1\n      dup2\n      mstore\n      0x20\n      add\n      0x00\n      keccak256\n        /* \"contracts/SampleStructMapping.sol\":777:805  balances[msg.sender].deposit */\n      0x02\n      add\n        /* \"contracts/SampleStructMapping.sol\":777:839  balances[msg.sender].deposit[balances[msg.sender].numDeposits] */\n      0x00\n        /* \"contracts/SampleStructMapping.sol\":806:814  balances */\n      0x00\n        /* \"contracts/SampleStructMapping.sol\":806:826  balances[msg.sender] */\n      0x00\n        /* \"contracts/SampleStructMapping.sol\":815:825  msg.sender */\n      caller\n        /* \"contracts/SampleStructMapping.sol\":806:826  balances[msg.sender] */\n      0xffffffffffffffffffffffffffffffffffffffff\n      and\n      0xffffffffffffffffffffffffffffffffffffffff\n      and\n      dup2\n      mstore\n      0x20\n      add\n      swap1\n      dup2\n      mstore\n      0x20\n      add\n      0x00\n      keccak256\n        /* \"contracts/SampleStructMapping.sol\":806:838  balances[msg.sender].numDeposits */\n      0x01\n      add\n      sload\n        /* \"contracts/SampleStructMapping.sol\":777:839  balances[msg.sender].deposit[balances[msg.sender].numDeposits] */\n      dup2\n      mstore\n      0x20\n      add\n      swap1\n      dup2\n      mstore\n      0x20\n      add\n      0x00\n      keccak256\n        /* \"contracts/SampleStructMapping.sol\":777:849  balances[msg.sender].deposit[balances[msg.sender].numDeposits] = deposit */\n      0x00\n      dup3\n      add\n      mload\n      dup2\n      0x00\n      add\n      sstore\n      0x20\n      dup3\n      add\n      mload\n      dup2\n      0x01\n      add\n      sstore\n      swap1\n      pop\n      pop\n        /* \"contracts/SampleStructMapping.sol\":859:867  balances */\n      0x00\n        /* \"contracts/SampleStructMapping.sol\":859:879  balances[msg.sender] */\n      0x00\n        /* \"contracts/SampleStructMapping.sol\":868:878  msg.sender */\n      caller\n        /* \"contracts/SampleStructMapping.sol\":859:879  balances[msg.sender] */\n      0xffffffffffffffffffffffffffffffffffffffff\n      and\n      0xffffffffffffffffffffffffffffffffffffffff\n      and\n      dup2\n      mstore\n      0x20\n      add\n      swap1\n      dup2\n      mstore\n      0x20\n      add\n      0x00\n      keccak256\n        /* \"contracts/SampleStructMapping.sol\":859:891  balances[msg.sender].numDeposits */\n      0x01\n      add\n      0x00\n        /* \"contracts/SampleStructMapping.sol\":859:894  balances[msg.sender].numDeposits ++ */\n      dup2\n      sload\n      dup1\n      swap3\n      swap2\n      swap1\n      tag_33\n      swap1\n      tag_34\n      jump\t// in\n    tag_33:\n      swap2\n      swap1\n      pop\n      sstore\n      pop\n        /* \"contracts/SampleStructMapping.sol\":632:901  {... */\n      pop\n        /* \"contracts/SampleStructMapping.sol\":597:901  function Deposit () public payable {... */\n      jump\t// out\n        /* \"contracts/SampleStructMapping.sol\":907:1277  function withdraw(address payable _to, uint _amount) public {... */\n    tag_26:\n        /* \"contracts/SampleStructMapping.sol\":1014:1021  _amount */\n      dup1\n        /* \"contracts/SampleStructMapping.sol\":977:985  balances */\n      0x00\n        /* \"contracts/SampleStructMapping.sol\":977:997  balances[msg.sender] */\n      0x00\n        /* \"contracts/SampleStructMapping.sol\":986:996  msg.sender */\n      caller\n        /* \"contracts/SampleStructMapping.sol\":977:997  balances[msg.sender] */\n      0xffffffffffffffffffffffffffffffffffffffff\n      and\n      0xffffffffffffffffffffffffffffffffffffffff\n      and\n      dup2\n      mstore\n      0x20\n      add\n      swap1\n      dup2\n      mstore\n      0x20\n      add\n      0x00\n      keccak256\n        /* \"contracts/SampleStructMapping.sol\":977:1010  balances[msg.sender].totalBalance */\n      0x00\n      add\n      0x00\n        /* \"contracts/SampleStructMapping.sol\":977:1021  balances[msg.sender].totalBalance -= _amount */\n      dup3\n      dup3\n      sload\n      tag_36\n      swap2\n      swap1\n      tag_37\n      jump\t// in\n    tag_36:\n      swap3\n      pop\n      pop\n      dup2\n      swap1\n      sstore\n      pop\n        /* \"contracts/SampleStructMapping.sol\":1032:1060  Transaction memory withdraws */\n      0x00\n        /* \"contracts/SampleStructMapping.sol\":1063:1100  Transaction(_amount, block.timestamp) */\n      mload(0x40)\n      dup1\n      0x40\n      add\n      0x40\n      mstore\n      dup1\n        /* \"contracts/SampleStructMapping.sol\":1075:1082  _amount */\n      dup4\n        /* \"contracts/SampleStructMapping.sol\":1063:1100  Transaction(_amount, block.timestamp) */\n      dup2\n      mstore\n      0x20\n      add\n        /* \"contracts/SampleStructMapping.sol\":1084:1099  block.timestamp */\n      timestamp\n        /* \"contracts/SampleStructMapping.sol\":1063:1100  Transaction(_amount, block.timestamp) */\n      dup2\n      mstore\n      pop\n        /* \"contracts/SampleStructMapping.sol\":1032:1100  Transaction memory withdraws = Transaction(_amount, block.timestamp) */\n      swap1\n      pop\n        /* \"contracts/SampleStructMapping.sol\":1181:1190  withdraws */\n      dup1\n        /* \"contracts/SampleStructMapping.sol\":1110:1118  balances */\n      0x00\n        /* \"contracts/SampleStructMapping.sol\":1110:1130  balances[msg.sender] */\n      0x00\n        /* \"contracts/SampleStructMapping.sol\":1119:1129  msg.sender */\n      caller\n        /* \"contracts/SampleStructMapping.sol\":1110:1130  balances[msg.sender] */\n      0xffffffffffffffffffffffffffffffffffffffff\n      and\n      0xffffffffffffffffffffffffffffffffffffffff\n      and\n      dup2\n      mstore\n      0x20\n      add\n      swap1\n      dup2\n      mstore\n      0x20\n      add\n      0x00\n      keccak256\n        /* \"contracts/SampleStructMapping.sol\":1110:1141  balances[msg.sender].withdrawal */\n      0x04\n      add\n        /* \"contracts/SampleStructMapping.sol\":1110:1178  balances[msg.sender].withdrawal[balances[msg.sender].numWithdrawals] */\n      0x00\n        /* \"contracts/SampleStructMapping.sol\":1142:1150  balances */\n      0x00\n        /* \"contracts/SampleStructMapping.sol\":1142:1162  balances[msg.sender] */\n      0x00\n        /* \"contracts/SampleStructMapping.sol\":1151:1161  msg.sender */\n      caller\n        /* \"contracts/SampleStructMapping.sol\":1142:1162  balances[msg.sender] */\n      0xffffffffffffffffffffffffffffffffffffffff\n      and\n      0xffffffffffffffffffffffffffffffffffffffff\n      and\n      dup2\n      mstore\n      0x20\n      add\n      swap1\n      dup2\n      mstore\n      0x20\n      add\n      0x00\n      keccak256\n        /* \"contracts/SampleStructMapping.sol\":1142:1177  balances[msg.sender].numWithdrawals */\n      0x03\n      add\n      sload\n        /* \"contracts/SampleStructMapping.sol\":1110:1178  balances[msg.sender].withdrawal[balances[msg.sender].numWithdrawals] */\n      dup2\n      mstore\n      0x20\n      add\n      swap1\n      dup2\n      mstore\n      0x20\n      add\n      0x00\n      keccak256\n        /* \"contracts/SampleStructMapping.sol\":1110:1190  balances[msg.sender].withdrawal[balances[msg.sender].numWithdrawals] = withdraws */\n      0x00\n      dup3\n      add\n      mload\n      dup2\n      0x00\n      add\n      sstore\n      0x20\n      dup3\n      add\n      mload\n      dup2\n      0x01\n      add\n      sstore\n      swap1\n      pop\n      pop\n        /* \"contracts/SampleStructMapping.sol\":1200:1208  balances */\n      0x00\n        /* \"contracts/SampleStructMapping.sol\":1200:1220  balances[msg.sender] */\n      0x00\n        /* \"contracts/SampleStructMapping.sol\":1209:1219  msg.sender */\n      caller\n        /* \"contracts/SampleStructMapping.sol\":1200:1220  balances[msg.sender] */\n      0xffffffffffffffffffffffffffffffffffffffff\n      and\n      0xffffffffffffffffffffffffffffffffffffffff\n      and\n      dup2\n      mstore\n      0x20\n      add\n      swap1\n      dup2\n      mstore\n      0x20\n      add\n      0x00\n      keccak256\n        /* \"contracts/SampleStructMapping.sol\":1200:1235  balances[msg.sender].numWithdrawals */\n      0x03\n      add\n      0x00\n        /* \"contracts/SampleStructMapping.sol\":1200:1238  balances[msg.sender].numWithdrawals ++ */\n      dup2\n      sload\n      dup1\n      swap3\n      swap2\n      swap1\n      tag_38\n      swap1\n      tag_34\n      jump\t// in\n    tag_38:\n      swap2\n      swap1\n      pop\n      sstore\n      pop\n        /* \"contracts/SampleStructMapping.sol\":1249:1252  _to */\n      dup3\n        /* \"contracts/SampleStructMapping.sol\":1249:1261  _to.transfer */\n      0xffffffffffffffffffffffffffffffffffffffff\n      and\n        /* \"contracts/SampleStructMapping.sol\":1249:1270  _to.transfer(_amount) */\n      0x08fc\n        /* \"contracts/SampleStructMapping.sol\":1262:1269  _amount */\n      dup4\n        /* \"contracts/SampleStructMapping.sol\":1249:1270  _to.transfer(_amount) */\n      swap1\n      dup2\n      iszero\n      mul\n      swap1\n      mload(0x40)\n      0x00\n      mload(0x40)\n      dup1\n      dup4\n      sub\n      dup2\n      dup6\n      dup9\n      dup9\n      call\n      swap4\n      pop\n      pop\n      pop\n      pop\n      iszero\n      dup1\n      iszero\n      tag_40\n      jumpi\n      returndatacopy(0x00, 0x00, returndatasize)\n      revert(0x00, returndatasize)\n    tag_40:\n      pop\n        /* \"contracts/SampleStructMapping.sol\":967:1277  {... */\n      pop\n        /* \"contracts/SampleStructMapping.sol\":907:1277  function withdraw(address payable _to, uint _amount) public {... */\n      pop\n      pop\n      jump\t// out\n    tag_28:\n      mload(0x40)\n      dup1\n      0x40\n      add\n      0x40\n      mstore\n      dup1\n      0x00\n      dup2\n      mstore\n      0x20\n      add\n      0x00\n      dup2\n      mstore\n      pop\n      swap1\n      jump\t// out\n        /* \"#utility.yul\":88:205   */\n    tag_42:\n        /* \"#utility.yul\":197:198   */\n      0x00\n        /* \"#utility.yul\":194:195   */\n      0x00\n        /* \"#utility.yul\":187:199   */\n      revert\n        /* \"#utility.yul\":334:460   */\n    tag_44:\n        /* \"#utility.yul\":371:378   */\n      0x00\n        /* \"#utility.yul\":411:453   */\n      0xffffffffffffffffffffffffffffffffffffffff\n        /* \"#utility.yul\":404:409   */\n      dup3\n        /* \"#utility.yul\":400:454   */\n      and\n        /* \"#utility.yul\":389:454   */\n      swap1\n      pop\n        /* \"#utility.yul\":334:460   */\n      swap2\n      swap1\n      pop\n      jump\t// out\n        /* \"#utility.yul\":466:562   */\n    tag_45:\n        /* \"#utility.yul\":503:510   */\n      0x00\n        /* \"#utility.yul\":532:556   */\n      tag_64\n        /* \"#utility.yul\":550:555   */\n      dup3\n        /* \"#utility.yul\":532:556   */\n      tag_44\n      jump\t// in\n    tag_64:\n        /* \"#utility.yul\":521:556   */\n      swap1\n      pop\n        /* \"#utility.yul\":466:562   */\n      swap2\n      swap1\n      pop\n      jump\t// out\n        /* \"#utility.yul\":568:690   */\n    tag_46:\n        /* \"#utility.yul\":641:665   */\n      tag_66\n        /* \"#utility.yul\":659:664   */\n      dup2\n        /* \"#utility.yul\":641:665   */\n      tag_45\n      jump\t// in\n    tag_66:\n        /* \"#utility.yul\":634:639   */\n      dup2\n        /* \"#utility.yul\":631:666   */\n      eq\n        /* \"#utility.yul\":621:684   */\n      tag_67\n      jumpi\n        /* \"#utility.yul\":680:681   */\n      0x00\n        /* \"#utility.yul\":677:678   */\n      0x00\n        /* \"#utility.yul\":670:682   */\n      revert\n        /* \"#utility.yul\":621:684   */\n    tag_67:\n        /* \"#utility.yul\":568:690   */\n      pop\n      jump\t// out\n        /* \"#utility.yul\":696:835   */\n    tag_47:\n        /* \"#utility.yul\":742:747   */\n      0x00\n        /* \"#utility.yul\":780:786   */\n      dup2\n        /* \"#utility.yul\":767:787   */\n      calldataload\n        /* \"#utility.yul\":758:787   */\n      swap1\n      pop\n        /* \"#utility.yul\":796:829   */\n      tag_69\n        /* \"#utility.yul\":823:828   */\n      dup2\n        /* \"#utility.yul\":796:829   */\n      tag_46\n      jump\t// in\n    tag_69:\n        /* \"#utility.yul\":696:835   */\n      swap3\n      swap2\n      pop\n      pop\n      jump\t// out\n        /* \"#utility.yul\":841:1170   */\n    tag_9:\n        /* \"#utility.yul\":900:906   */\n      0x00\n        /* \"#utility.yul\":949:951   */\n      0x20\n        /* \"#utility.yul\":937:946   */\n      dup3\n        /* \"#utility.yul\":928:935   */\n      dup5\n        /* \"#utility.yul\":924:947   */\n      sub\n        /* \"#utility.yul\":920:952   */\n      slt\n        /* \"#utility.yul\":917:1036   */\n      iszero\n      tag_71\n      jumpi\n        /* \"#utility.yul\":955:1034   */\n      tag_72\n      tag_42\n      jump\t// in\n    tag_72:\n        /* \"#utility.yul\":917:1036   */\n    tag_71:\n        /* \"#utility.yul\":1075:1076   */\n      0x00\n        /* \"#utility.yul\":1100:1153   */\n      tag_73\n        /* \"#utility.yul\":1145:1152   */\n      dup5\n        /* \"#utility.yul\":1136:1142   */\n      dup3\n        /* \"#utility.yul\":1125:1134   */\n      dup6\n        /* \"#utility.yul\":1121:1143   */\n      add\n        /* \"#utility.yul\":1100:1153   */\n      tag_47\n      jump\t// in\n    tag_73:\n        /* \"#utility.yul\":1090:1153   */\n      swap2\n      pop\n        /* \"#utility.yul\":1046:1163   */\n      pop\n        /* \"#utility.yul\":841:1170   */\n      swap3\n      swap2\n      pop\n      pop\n      jump\t// out\n        /* \"#utility.yul\":1176:1253   */\n    tag_48:\n        /* \"#utility.yul\":1213:1220   */\n      0x00\n        /* \"#utility.yul\":1242:1247   */\n      dup2\n        /* \"#utility.yul\":1231:1247   */\n      swap1\n      pop\n        /* \"#utility.yul\":1176:1253   */\n      swap2\n      swap1\n      pop\n      jump\t// out\n        /* \"#utility.yul\":1259:1377   */\n    tag_49:\n        /* \"#utility.yul\":1346:1370   */\n      tag_76\n        /* \"#utility.yul\":1364:1369   */\n      dup2\n        /* \"#utility.yul\":1346:1370   */\n      tag_48\n      jump\t// in\n    tag_76:\n        /* \"#utility.yul\":1341:1344   */\n      dup3\n        /* \"#utility.yul\":1334:1371   */\n      mstore\n        /* \"#utility.yul\":1259:1377   */\n      pop\n      pop\n      jump\t// out\n        /* \"#utility.yul\":1383:1825   */\n    tag_12:\n        /* \"#utility.yul\":1532:1536   */\n      0x00\n        /* \"#utility.yul\":1570:1572   */\n      0x60\n        /* \"#utility.yul\":1559:1568   */\n      dup3\n        /* \"#utility.yul\":1555:1573   */\n      add\n        /* \"#utility.yul\":1547:1573   */\n      swap1\n      pop\n        /* \"#utility.yul\":1583:1654   */\n      tag_78\n        /* \"#utility.yul\":1651:1652   */\n      0x00\n        /* \"#utility.yul\":1640:1649   */\n      dup4\n        /* \"#utility.yul\":1636:1653   */\n      add\n        /* \"#utility.yul\":1627:1633   */\n      dup7\n        /* \"#utility.yul\":1583:1654   */\n      tag_49\n      jump\t// in\n    tag_78:\n        /* \"#utility.yul\":1664:1736   */\n      tag_79\n        /* \"#utility.yul\":1732:1734   */\n      0x20\n        /* \"#utility.yul\":1721:1730   */\n      dup4\n        /* \"#utility.yul\":1717:1735   */\n      add\n        /* \"#utility.yul\":1708:1714   */\n      dup6\n        /* \"#utility.yul\":1664:1736   */\n      tag_49\n      jump\t// in\n    tag_79:\n        /* \"#utility.yul\":1746:1818   */\n      tag_80\n        /* \"#utility.yul\":1814:1816   */\n      0x40\n        /* \"#utility.yul\":1803:1812   */\n      dup4\n        /* \"#utility.yul\":1799:1817   */\n      add\n        /* \"#utility.yul\":1790:1796   */\n      dup5\n        /* \"#utility.yul\":1746:1818   */\n      tag_49\n      jump\t// in\n    tag_80:\n        /* \"#utility.yul\":1383:1825   */\n      swap5\n      swap4\n      pop\n      pop\n      pop\n      pop\n      jump\t// out\n        /* \"#utility.yul\":1831:1953   */\n    tag_50:\n        /* \"#utility.yul\":1904:1928   */\n      tag_82\n        /* \"#utility.yul\":1922:1927   */\n      dup2\n        /* \"#utility.yul\":1904:1928   */\n      tag_48\n      jump\t// in\n    tag_82:\n        /* \"#utility.yul\":1897:1902   */\n      dup2\n        /* \"#utility.yul\":1894:1929   */\n      eq\n        /* \"#utility.yul\":1884:1947   */\n      tag_83\n      jumpi\n        /* \"#utility.yul\":1943:1944   */\n      0x00\n        /* \"#utility.yul\":1940:1941   */\n      0x00\n        /* \"#utility.yul\":1933:1945   */\n      revert\n        /* \"#utility.yul\":1884:1947   */\n    tag_83:\n        /* \"#utility.yul\":1831:1953   */\n      pop\n      jump\t// out\n        /* \"#utility.yul\":1959:2098   */\n    tag_51:\n        /* \"#utility.yul\":2005:2010   */\n      0x00\n        /* \"#utility.yul\":2043:2049   */\n      dup2\n        /* \"#utility.yul\":2030:2050   */\n      calldataload\n        /* \"#utility.yul\":2021:2050   */\n      swap1\n      pop\n        /* \"#utility.yul\":2059:2092   */\n      tag_85\n        /* \"#utility.yul\":2086:2091   */\n      dup2\n        /* \"#utility.yul\":2059:2092   */\n      tag_50\n      jump\t// in\n    tag_85:\n        /* \"#utility.yul\":1959:2098   */\n      swap3\n      swap2\n      pop\n      pop\n      jump\t// out\n        /* \"#utility.yul\":2104:2578   */\n    tag_16:\n        /* \"#utility.yul\":2172:2178   */\n      0x00\n        /* \"#utility.yul\":2180:2186   */\n      0x00\n        /* \"#utility.yul\":2229:2231   */\n      0x40\n        /* \"#utility.yul\":2217:2226   */\n      dup4\n        /* \"#utility.yul\":2208:2215   */\n      dup6\n        /* \"#utility.yul\":2204:2227   */\n      sub\n        /* \"#utility.yul\":2200:2232   */\n      slt\n        /* \"#utility.yul\":2197:2316   */\n      iszero\n      tag_87\n      jumpi\n        /* \"#utility.yul\":2235:2314   */\n      tag_88\n      tag_42\n      jump\t// in\n    tag_88:\n        /* \"#utility.yul\":2197:2316   */\n    tag_87:\n        /* \"#utility.yul\":2355:2356   */\n      0x00\n        /* \"#utility.yul\":2380:2433   */\n      tag_89\n        /* \"#utility.yul\":2425:2432   */\n      dup6\n        /* \"#utility.yul\":2416:2422   */\n      dup3\n        /* \"#utility.yul\":2405:2414   */\n      dup7\n        /* \"#utility.yul\":2401:2423   */\n      add\n        /* \"#utility.yul\":2380:2433   */\n      tag_47\n      jump\t// in\n    tag_89:\n        /* \"#utility.yul\":2370:2433   */\n      swap3\n      pop\n        /* \"#utility.yul\":2326:2443   */\n      pop\n        /* \"#utility.yul\":2482:2484   */\n      0x20\n        /* \"#utility.yul\":2508:2561   */\n      tag_90\n        /* \"#utility.yul\":2553:2560   */\n      dup6\n        /* \"#utility.yul\":2544:2550   */\n      dup3\n        /* \"#utility.yul\":2533:2542   */\n      dup7\n        /* \"#utility.yul\":2529:2551   */\n      add\n        /* \"#utility.yul\":2508:2561   */\n      tag_51\n      jump\t// in\n    tag_90:\n        /* \"#utility.yul\":2498:2561   */\n      swap2\n      pop\n        /* \"#utility.yul\":2453:2571   */\n      pop\n        /* \"#utility.yul\":2104:2578   */\n      swap3\n      pop\n      swap3\n      swap1\n      pop\n      jump\t// out\n        /* \"#utility.yul\":2584:2692   */\n    tag_52:\n        /* \"#utility.yul\":2661:2685   */\n      tag_92\n        /* \"#utility.yul\":2679:2684   */\n      dup2\n        /* \"#utility.yul\":2661:2685   */\n      tag_48\n      jump\t// in\n    tag_92:\n        /* \"#utility.yul\":2656:2659   */\n      dup3\n        /* \"#utility.yul\":2649:2686   */\n      mstore\n        /* \"#utility.yul\":2584:2692   */\n      pop\n      pop\n      jump\t// out\n        /* \"#utility.yul\":2776:3291   */\n    tag_53:\n        /* \"#utility.yul\":2925:2929   */\n      0x40\n        /* \"#utility.yul\":2920:2923   */\n      dup3\n        /* \"#utility.yul\":2916:2930   */\n      add\n        /* \"#utility.yul\":3013:3017   */\n      0x00\n        /* \"#utility.yul\":3006:3011   */\n      dup3\n        /* \"#utility.yul\":3002:3018   */\n      add\n        /* \"#utility.yul\":2996:3019   */\n      mload\n        /* \"#utility.yul\":3032:3095   */\n      tag_94\n        /* \"#utility.yul\":3089:3093   */\n      0x00\n        /* \"#utility.yul\":3084:3087   */\n      dup6\n        /* \"#utility.yul\":3080:3094   */\n      add\n        /* \"#utility.yul\":3066:3078   */\n      dup3\n        /* \"#utility.yul\":3032:3095   */\n      tag_52\n      jump\t// in\n    tag_94:\n        /* \"#utility.yul\":2940:3105   */\n      pop\n        /* \"#utility.yul\":3192:3196   */\n      0x20\n        /* \"#utility.yul\":3185:3190   */\n      dup3\n        /* \"#utility.yul\":3181:3197   */\n      add\n        /* \"#utility.yul\":3175:3198   */\n      mload\n        /* \"#utility.yul\":3211:3274   */\n      tag_95\n        /* \"#utility.yul\":3268:3272   */\n      0x20\n        /* \"#utility.yul\":3263:3266   */\n      dup6\n        /* \"#utility.yul\":3259:3273   */\n      add\n        /* \"#utility.yul\":3245:3257   */\n      dup3\n        /* \"#utility.yul\":3211:3274   */\n      tag_52\n      jump\t// in\n    tag_95:\n        /* \"#utility.yul\":3115:3284   */\n      pop\n        /* \"#utility.yul\":2894:3291   */\n      pop\n        /* \"#utility.yul\":2776:3291   */\n      pop\n      pop\n      jump\t// out\n        /* \"#utility.yul\":3297:3623   */\n    tag_19:\n        /* \"#utility.yul\":3442:3446   */\n      0x00\n        /* \"#utility.yul\":3480:3482   */\n      0x40\n        /* \"#utility.yul\":3469:3478   */\n      dup3\n        /* \"#utility.yul\":3465:3483   */\n      add\n        /* \"#utility.yul\":3457:3483   */\n      swap1\n      pop\n        /* \"#utility.yul\":3493:3616   */\n      tag_97\n        /* \"#utility.yul\":3613:3614   */\n      0x00\n        /* \"#utility.yul\":3602:3611   */\n      dup4\n        /* \"#utility.yul\":3598:3615   */\n      add\n        /* \"#utility.yul\":3589:3595   */\n      dup5\n        /* \"#utility.yul\":3493:3616   */\n      tag_53\n      jump\t// in\n    tag_97:\n        /* \"#utility.yul\":3297:3623   */\n      swap3\n      swap2\n      pop\n      pop\n      jump\t// out\n        /* \"#utility.yul\":3629:3733   */\n    tag_54:\n        /* \"#utility.yul\":3674:3681   */\n      0x00\n        /* \"#utility.yul\":3703:3727   */\n      tag_99\n        /* \"#utility.yul\":3721:3726   */\n      dup3\n        /* \"#utility.yul\":3703:3727   */\n      tag_44\n      jump\t// in\n    tag_99:\n        /* \"#utility.yul\":3692:3727   */\n      swap1\n      pop\n        /* \"#utility.yul\":3629:3733   */\n      swap2\n      swap1\n      pop\n      jump\t// out\n        /* \"#utility.yul\":3739:3877   */\n    tag_55:\n        /* \"#utility.yul\":3820:3852   */\n      tag_101\n        /* \"#utility.yul\":3846:3851   */\n      dup2\n        /* \"#utility.yul\":3820:3852   */\n      tag_54\n      jump\t// in\n    tag_101:\n        /* \"#utility.yul\":3813:3818   */\n      dup2\n        /* \"#utility.yul\":3810:3853   */\n      eq\n        /* \"#utility.yul\":3800:3871   */\n      tag_102\n      jumpi\n        /* \"#utility.yul\":3867:3868   */\n      0x00\n        /* \"#utility.yul\":3864:3865   */\n      0x00\n        /* \"#utility.yul\":3857:3869   */\n      revert\n        /* \"#utility.yul\":3800:3871   */\n    tag_102:\n        /* \"#utility.yul\":3739:3877   */\n      pop\n      jump\t// out\n        /* \"#utility.yul\":3883:4038   */\n    tag_56:\n        /* \"#utility.yul\":3937:3942   */\n      0x00\n        /* \"#utility.yul\":3975:3981   */\n      dup2\n        /* \"#utility.yul\":3962:3982   */\n      calldataload\n        /* \"#utility.yul\":3953:3982   */\n      swap1\n      pop\n        /* \"#utility.yul\":3991:4032   */\n      tag_104\n        /* \"#utility.yul\":4026:4031   */\n      dup2\n        /* \"#utility.yul\":3991:4032   */\n      tag_55\n      jump\t// in\n    tag_104:\n        /* \"#utility.yul\":3883:4038   */\n      swap3\n      swap2\n      pop\n      pop\n      jump\t// out\n        /* \"#utility.yul\":4044:4534   */\n    tag_25:\n        /* \"#utility.yul\":4120:4126   */\n      0x00\n        /* \"#utility.yul\":4128:4134   */\n      0x00\n        /* \"#utility.yul\":4177:4179   */\n      0x40\n        /* \"#utility.yul\":4165:4174   */\n      dup4\n        /* \"#utility.yul\":4156:4163   */\n      dup6\n        /* \"#utility.yul\":4152:4175   */\n      sub\n        /* \"#utility.yul\":4148:4180   */\n      slt\n        /* \"#utility.yul\":4145:4264   */\n      iszero\n      tag_106\n      jumpi\n        /* \"#utility.yul\":4183:4262   */\n      tag_107\n      tag_42\n      jump\t// in\n    tag_107:\n        /* \"#utility.yul\":4145:4264   */\n    tag_106:\n        /* \"#utility.yul\":4303:4304   */\n      0x00\n        /* \"#utility.yul\":4328:4389   */\n      tag_108\n        /* \"#utility.yul\":4381:4388   */\n      dup6\n        /* \"#utility.yul\":4372:4378   */\n      dup3\n        /* \"#utility.yul\":4361:4370   */\n      dup7\n        /* \"#utility.yul\":4357:4379   */\n      add\n        /* \"#utility.yul\":4328:4389   */\n      tag_56\n      jump\t// in\n    tag_108:\n        /* \"#utility.yul\":4318:4389   */\n      swap3\n      pop\n        /* \"#utility.yul\":4274:4399   */\n      pop\n        /* \"#utility.yul\":4438:4440   */\n      0x20\n        /* \"#utility.yul\":4464:4517   */\n      tag_109\n        /* \"#utility.yul\":4509:4516   */\n      dup6\n        /* \"#utility.yul\":4500:4506   */\n      dup3\n        /* \"#utility.yul\":4489:4498   */\n      dup7\n        /* \"#utility.yul\":4485:4507   */\n      add\n        /* \"#utility.yul\":4464:4517   */\n      tag_51\n      jump\t// in\n    tag_109:\n        /* \"#utility.yul\":4454:4517   */\n      swap2\n      pop\n        /* \"#utility.yul\":4409:4527   */\n      pop\n        /* \"#utility.yul\":4044:4534   */\n      swap3\n      pop\n      swap3\n      swap1\n      pop\n      jump\t// out\n        /* \"#utility.yul\":4540:4720   */\n    tag_57:\n        /* \"#utility.yul\":4588:4665   */\n      0x4e487b7100000000000000000000000000000000000000000000000000000000\n        /* \"#utility.yul\":4585:4586   */\n      0x00\n        /* \"#utility.yul\":4578:4666   */\n      mstore\n        /* \"#utility.yul\":4685:4689   */\n      0x11\n        /* \"#utility.yul\":4682:4683   */\n      0x04\n        /* \"#utility.yul\":4675:4690   */\n      mstore\n        /* \"#utility.yul\":4709:4713   */\n      0x24\n        /* \"#utility.yul\":4706:4707   */\n      0x00\n        /* \"#utility.yul\":4699:4714   */\n      revert\n        /* \"#utility.yul\":4726:4917   */\n    tag_32:\n        /* \"#utility.yul\":4766:4769   */\n      0x00\n        /* \"#utility.yul\":4785:4805   */\n      tag_112\n        /* \"#utility.yul\":4803:4804   */\n      dup3\n        /* \"#utility.yul\":4785:4805   */\n      tag_48\n      jump\t// in\n    tag_112:\n        /* \"#utility.yul\":4780:4805   */\n      swap2\n      pop\n        /* \"#utility.yul\":4819:4839   */\n      tag_113\n        /* \"#utility.yul\":4837:4838   */\n      dup4\n        /* \"#utility.yul\":4819:4839   */\n      tag_48\n      jump\t// in\n    tag_113:\n        /* \"#utility.yul\":4814:4839   */\n      swap3\n      pop\n        /* \"#utility.yul\":4862:4863   */\n      dup3\n        /* \"#utility.yul\":4859:4860   */\n      dup3\n        /* \"#utility.yul\":4855:4864   */\n      add\n        /* \"#utility.yul\":4848:4864   */\n      swap1\n      pop\n        /* \"#utility.yul\":4883:4886   */\n      dup1\n        /* \"#utility.yul\":4880:4881   */\n      dup3\n        /* \"#utility.yul\":4877:4887   */\n      gt\n        /* \"#utility.yul\":4874:4910   */\n      iszero\n      tag_114\n      jumpi\n        /* \"#utility.yul\":4890:4908   */\n      tag_115\n      tag_57\n      jump\t// in\n    tag_115:\n        /* \"#utility.yul\":4874:4910   */\n    tag_114:\n        /* \"#utility.yul\":4726:4917   */\n      swap3\n      swap2\n      pop\n      pop\n      jump\t// out\n        /* \"#utility.yul\":4923:5156   */\n    tag_34:\n        /* \"#utility.yul\":4962:4965   */\n      0x00\n        /* \"#utility.yul\":4985:5009   */\n      tag_117\n        /* \"#utility.yul\":5003:5008   */\n      dup3\n        /* \"#utility.yul\":4985:5009   */\n      tag_48\n      jump\t// in\n    tag_117:\n        /* \"#utility.yul\":4976:5009   */\n      swap2\n      pop\n        /* \"#utility.yul\":5031:5097   */\n      0xffffffffffffffffffffffffffffffffffffffffffffffffffffffffffffffff\n        /* \"#utility.yul\":5024:5029   */\n      dup3\n        /* \"#utility.yul\":5021:5098   */\n      sub\n        /* \"#utility.yul\":5018:5121   */\n      tag_118\n      jumpi\n        /* \"#utility.yul\":5101:5119   */\n      tag_119\n      tag_57\n      jump\t// in\n    tag_119:\n        /* \"#utility.yul\":5018:5121   */\n    tag_118:\n        /* \"#utility.yul\":5148:5149   */\n      0x01\n        /* \"#utility.yul\":5141:5146   */\n      dup3\n        /* \"#utility.yul\":5137:5150   */\n      add\n        /* \"#utility.yul\":5130:5150   */\n      swap1\n      pop\n        /* \"#utility.yul\":4923:5156   */\n      swap2\n      swap1\n      pop\n      jump\t// out\n        /* \"#utility.yul\":5162:5356   */\n    tag_37:\n        /* \"#utility.yul\":5202:5206   */\n      0x00\n        /* \"#utility.yul\":5222:5242   */\n      tag_121\n        /* \"#utility.yul\":5240:5241   */\n      dup3\n        /* \"#utility.yul\":5222:5242   */\n      tag_48\n      jump\t// in\n    tag_121:\n        /* \"#utility.yul\":5217:5242   */\n      swap2\n      pop\n        /* \"#utility.yul\":5256:5276   */\n      tag_122\n        /* \"#utility.yul\":5274:5275   */\n      dup4\n        /* \"#utility.yul\":5256:5276   */\n      tag_48\n      jump\t// in\n    tag_122:\n        /* \"#utility.yul\":5251:5276   */\n      swap3\n      pop\n        /* \"#utility.yul\":5300:5301   */\n      dup3\n        /* \"#utility.yul\":5297:5298   */\n      dup3\n        /* \"#utility.yul\":5293:5302   */\n      sub\n        /* \"#utility.yul\":5285:5302   */\n      swap1\n      pop\n        /* \"#utility.yul\":5324:5325   */\n      dup2\n        /* \"#utility.yul\":5318:5322   */\n      dup2\n        /* \"#utility.yul\":5315:5326   */\n      gt\n        /* \"#utility.yul\":5312:5349   */\n      iszero\n      tag_123\n      jumpi\n        /* \"#utility.yul\":5329:5347   */\n      tag_124\n      tag_57\n      jump\t// in\n    tag_124:\n        /* \"#utility.yul\":5312:5349   */\n    tag_123:\n        /* \"#utility.yul\":5162:5356   */\n      swap3\n      swap2\n      pop\n      pop\n      jump\t// out\n\n    auxdata: 0xa2646970667358221220153267cdef79cd626449ab55f6ea9c5d2a45b179a8195e0a9f2acce413289abe64736f6c634300081c0033\n}\n",
				"bytecode": {
					"linkReferences": {},
					"object": "6080604052348015600e575f5ffd5b506107d58061001c5f395ff3fe60806040526004361061003e575f3560e01c806327e235e31461004257806355e14fe614610080578063ed21248c146100bc578063f3fef3a3146100c6575b5f5ffd5b34801561004d575f5ffd5b5061006860048036038101906100639190610517565b6100ee565b6040516100779392919061055a565b60405180910390f35b34801561008b575f5ffd5b506100a660048036038101906100a191906105b9565b610113565b6040516100b39190610633565b60405180910390f35b6100c461018f565b005b3480156100d1575f5ffd5b506100ec60048036038101906100e79190610687565b6102f5565b005b5f602052805f5260405f205f91509050805f0154908060010154908060030154905083565b61011b6104a1565b5f5f8473ffffffffffffffffffffffffffffffffffffffff1673ffffffffffffffffffffffffffffffffffffffff1681526020019081526020015f206002015f8381526020019081526020015f206040518060400160405290815f8201548152602001600182015481525050905092915050565b345f5f3373ffffffffffffffffffffffffffffffffffffffff1673ffffffffffffffffffffffffffffffffffffffff1681526020019081526020015f205f015f8282546101dc91906106f2565b925050819055505f6040518060400160405280348152602001428152509050805f5f3373ffffffffffffffffffffffffffffffffffffffff1673ffffffffffffffffffffffffffffffffffffffff1681526020019081526020015f206002015f5f5f3373ffffffffffffffffffffffffffffffffffffffff1673ffffffffffffffffffffffffffffffffffffffff1681526020019081526020015f206001015481526020019081526020015f205f820151815f0155602082015181600101559050505f5f3373ffffffffffffffffffffffffffffffffffffffff1673ffffffffffffffffffffffffffffffffffffffff1681526020019081526020015f206001015f8154809291906102ed90610725565b919050555050565b805f5f3373ffffffffffffffffffffffffffffffffffffffff1673ffffffffffffffffffffffffffffffffffffffff1681526020019081526020015f205f015f828254610342919061076c565b925050819055505f6040518060400160405280838152602001428152509050805f5f3373ffffffffffffffffffffffffffffffffffffffff1673ffffffffffffffffffffffffffffffffffffffff1681526020019081526020015f206004015f5f5f3373ffffffffffffffffffffffffffffffffffffffff1673ffffffffffffffffffffffffffffffffffffffff1681526020019081526020015f206003015481526020019081526020015f205f820151815f0155602082015181600101559050505f5f3373ffffffffffffffffffffffffffffffffffffffff1673ffffffffffffffffffffffffffffffffffffffff1681526020019081526020015f206003015f81548092919061045390610725565b91905055508273ffffffffffffffffffffffffffffffffffffffff166108fc8390811502906040515f60405180830381858888f1935050505015801561049b573d5f5f3e3d5ffd5b50505050565b60405180604001604052805f81526020015f81525090565b5f5ffd5b5f73ffffffffffffffffffffffffffffffffffffffff82169050919050565b5f6104e6826104bd565b9050919050565b6104f6816104dc565b8114610500575f5ffd5b50565b5f81359050610511816104ed565b92915050565b5f6020828403121561052c5761052b6104b9565b5b5f61053984828501610503565b91505092915050565b5f819050919050565b61055481610542565b82525050565b5f60608201905061056d5f83018661054b565b61057a602083018561054b565b610587604083018461054b565b949350505050565b61059881610542565b81146105a2575f5ffd5b50565b5f813590506105b38161058f565b92915050565b5f5f604083850312156105cf576105ce6104b9565b5b5f6105dc85828601610503565b92505060206105ed858286016105a5565b9150509250929050565b61060081610542565b82525050565b604082015f82015161061a5f8501826105f7565b50602082015161062d60208501826105f7565b50505050565b5f6040820190506106465f830184610606565b92915050565b5f610656826104bd565b9050919050565b6106668161064c565b8114610670575f5ffd5b50565b5f813590506106818161065d565b92915050565b5f5f6040838503121561069d5761069c6104b9565b5b5f6106aa85828601610673565b92505060206106bb858286016105a5565b9150509250929050565b7f4e487b71000000000000000000000000000000000000000000000000000000005f52601160045260245ffd5b5f6106fc82610542565b915061070783610542565b925082820190508082111561071f5761071e6106c5565b5b92915050565b5f61072f82610542565b91507fffffffffffffffffffffffffffffffffffffffffffffffffffffffffffffffff8203610761576107606106c5565b5b600182019050919050565b5f61077682610542565b915061078183610542565b9250828203905081811115610799576107986106c5565b5b9291505056fea2646970667358221220153267cdef79cd626449ab55f6ea9c5d2a45b179a8195e0a9f2acce413289abe64736f6c634300081c0033",
					"opcodes": "PUSH1 0x80 PUSH1 0x40 MSTORE CALLVALUE DUP1 ISZERO PUSH1 0xE JUMPI PUSH0 PUSH0 REVERT JUMPDEST POP PUSH2 0x7D5 DUP1 PUSH2 0x1C PUSH0 CODECOPY PUSH0 RETURN INVALID PUSH1 0x80 PUSH1 0x40 MSTORE PUSH1 0x4 CALLDATASIZE LT PUSH2 0x3E JUMPI PUSH0 CALLDATALOAD PUSH1 0xE0 SHR DUP1 PUSH4 0x27E235E3 EQ PUSH2 0x42 JUMPI DUP1 PUSH4 0x55E14FE6 EQ PUSH2 0x80 JUMPI DUP1 PUSH4 0xED21248C EQ PUSH2 0xBC JUMPI DUP1 PUSH4 0xF3FEF3A3 EQ PUSH2 0xC6 JUMPI JUMPDEST PUSH0 PUSH0 REVERT JUMPDEST CALLVALUE DUP1 ISZERO PUSH2 0x4D JUMPI PUSH0 PUSH0 REVERT JUMPDEST POP PUSH2 0x68 PUSH1 0x4 DUP1 CALLDATASIZE SUB DUP2 ADD SWAP1 PUSH2 0x63 SWAP2 SWAP1 PUSH2 0x517 JUMP JUMPDEST PUSH2 0xEE JUMP JUMPDEST PUSH1 0x40 MLOAD PUSH2 0x77 SWAP4 SWAP3 SWAP2 SWAP1 PUSH2 0x55A JUMP JUMPDEST PUSH1 0x40 MLOAD DUP1 SWAP2 SUB SWAP1 RETURN JUMPDEST CALLVALUE DUP1 ISZERO PUSH2 0x8B JUMPI PUSH0 PUSH0 REVERT JUMPDEST POP PUSH2 0xA6 PUSH1 0x4 DUP1 CALLDATASIZE SUB DUP2 ADD SWAP1 PUSH2 0xA1 SWAP2 SWAP1 PUSH2 0x5B9 JUMP JUMPDEST PUSH2 0x113 JUMP JUMPDEST PUSH1 0x40 MLOAD PUSH2 0xB3 SWAP2 SWAP1 PUSH2 0x633 JUMP JUMPDEST PUSH1 0x40 MLOAD DUP1 SWAP2 SUB SWAP1 RETURN JUMPDEST PUSH2 0xC4 PUSH2 0x18F JUMP JUMPDEST STOP JUMPDEST CALLVALUE DUP1 ISZERO PUSH2 0xD1 JUMPI PUSH0 PUSH0 REVERT JUMPDEST POP PUSH2 0xEC PUSH1 0x4 DUP1 CALLDATASIZE SUB DUP2 ADD SWAP1 PUSH2 0xE7 SWAP2 SWAP1 PUSH2 0x687 JUMP JUMPDEST PUSH2 0x2F5 JUMP JUMPDEST STOP JUMPDEST PUSH0 PUSH1 0x20 MSTORE DUP1 PUSH0 MSTORE PUSH1 0x40 PUSH0 KECCAK256 PUSH0 SWAP2 POP SWAP1 POP DUP1 PUSH0 ADD SLOAD SWAP1 DUP1 PUSH1 0x1 ADD SLOAD SWAP1 DUP1 PUSH1 0x3 ADD SLOAD SWAP1 POP DUP4 JUMP JUMPDEST PUSH2 0x11B PUSH2 0x4A1 JUMP JUMPDEST PUSH0 PUSH0 DUP5 PUSH20 0xFFFFFFFFFFFFFFFFFFFFFFFFFFFFFFFFFFFFFFFF AND PUSH20 0xFFFFFFFFFFFFFFFFFFFFFFFFFFFFFFFFFFFFFFFF AND DUP2 MSTORE PUSH1 0x20 ADD SWAP1 DUP2 MSTORE PUSH1 0x20 ADD PUSH0 KECCAK256 PUSH1 0x2 ADD PUSH0 DUP4 DUP2 MSTORE PUSH1 0x20 ADD SWAP1 DUP2 MSTORE PUSH1 0x20 ADD PUSH0 KECCAK256 PUSH1 0x40 MLOAD DUP1 PUSH1 0x40 ADD PUSH1 0x40 MSTORE SWAP1 DUP2 PUSH0 DUP3 ADD SLOAD DUP2 MSTORE PUSH1 0x20 ADD PUSH1 0x1 DUP3 ADD SLOAD DUP2 MSTORE POP POP SWAP1 POP SWAP3 SWAP2 POP POP JUMP JUMPDEST CALLVALUE PUSH0 PUSH0 CALLER PUSH20 0xFFFFFFFFFFFFFFFFFFFFFFFFFFFFFFFFFFFFFFFF AND PUSH20 0xFFFFFFFFFFFFFFFFFFFFFFFFFFFFFFFFFFFFFFFF AND DUP2 MSTORE PUSH1 0x20 ADD SWAP1 DUP2 MSTORE PUSH1 0x20 ADD PUSH0 KECCAK256 PUSH0 ADD PUSH0 DUP3 DUP3 SLOAD PUSH2 0x1DC SWAP2 SWAP1 PUSH2 0x6F2 JUMP JUMPDEST SWAP3 POP POP DUP2 SWAP1 SSTORE POP PUSH0 PUSH1 0x40 MLOAD DUP1 PUSH1 0x40 ADD PUSH1 0x40 MSTORE DUP1 CALLVALUE DUP2 MSTORE PUSH1 0x20 ADD TIMESTAMP DUP2 MSTORE POP SWAP1 POP DUP1 PUSH0 PUSH0 CALLER PUSH20 0xFFFFFFFFFFFFFFFFFFFFFFFFFFFFFFFFFFFFFFFF AND PUSH20 0xFFFFFFFFFFFFFFFFFFFFFFFFFFFFFFFFFFFFFFFF AND DUP2 MSTORE PUSH1 0x20 ADD SWAP1 DUP2 MSTORE PUSH1 0x20 ADD PUSH0 KECCAK256 PUSH1 0x2 ADD PUSH0 PUSH0 PUSH0 CALLER PUSH20 0xFFFFFFFFFFFFFFFFFFFFFFFFFFFFFFFFFFFFFFFF AND PUSH20 0xFFFFFFFFFFFFFFFFFFFFFFFFFFFFFFFFFFFFFFFF AND DUP2 MSTORE PUSH1 0x20 ADD SWAP1 DUP2 MSTORE PUSH1 0x20 ADD PUSH0 KECCAK256 PUSH1 0x1 ADD SLOAD DUP2 MSTORE PUSH1 0x20 ADD SWAP1 DUP2 MSTORE PUSH1 0x20 ADD PUSH0 KECCAK256 PUSH0 DUP3 ADD MLOAD DUP2 PUSH0 ADD SSTORE PUSH1 0x20 DUP3 ADD MLOAD DUP2 PUSH1 0x1 ADD SSTORE SWAP1 POP POP PUSH0 PUSH0 CALLER PUSH20 0xFFFFFFFFFFFFFFFFFFFFFFFFFFFFFFFFFFFFFFFF AND PUSH20 0xFFFFFFFFFFFFFFFFFFFFFFFFFFFFFFFFFFFFFFFF AND DUP2 MSTORE PUSH1 0x20 ADD SWAP1 DUP2 MSTORE PUSH1 0x20 ADD PUSH0 KECCAK256 PUSH1 0x1 ADD PUSH0 DUP2 SLOAD DUP1 SWAP3 SWAP2 SWAP1 PUSH2 0x2ED SWAP1 PUSH2 0x725 JUMP JUMPDEST SWAP2 SWAP1 POP SSTORE POP POP JUMP JUMPDEST DUP1 PUSH0 PUSH0 CALLER PUSH20 0xFFFFFFFFFFFFFFFFFFFFFFFFFFFFFFFFFFFFFFFF AND PUSH20 0xFFFFFFFFFFFFFFFFFFFFFFFFFFFFFFFFFFFFFFFF AND DUP2 MSTORE PUSH1 0x20 ADD SWAP1 DUP2 MSTORE PUSH1 0x20 ADD PUSH0 KECCAK256 PUSH0 ADD PUSH0 DUP3 DUP3 SLOAD PUSH2 0x342 SWAP2 SWAP1 PUSH2 0x76C JUMP JUMPDEST SWAP3 POP POP DUP2 SWAP1 SSTORE POP PUSH0 PUSH1 0x40 MLOAD DUP1 PUSH1 0x40 ADD PUSH1 0x40 MSTORE DUP1 DUP4 DUP2 MSTORE PUSH1 0x20 ADD TIMESTAMP DUP2 MSTORE POP SWAP1 POP DUP1 PUSH0 PUSH0 CALLER PUSH20 0xFFFFFFFFFFFFFFFFFFFFFFFFFFFFFFFFFFFFFFFF AND PUSH20 0xFFFFFFFFFFFFFFFFFFFFFFFFFFFFFFFFFFFFFFFF AND DUP2 MSTORE PUSH1 0x20 ADD SWAP1 DUP2 MSTORE PUSH1 0x20 ADD PUSH0 KECCAK256 PUSH1 0x4 ADD PUSH0 PUSH0 PUSH0 CALLER PUSH20 0xFFFFFFFFFFFFFFFFFFFFFFFFFFFFFFFFFFFFFFFF AND PUSH20 0xFFFFFFFFFFFFFFFFFFFFFFFFFFFFFFFFFFFFFFFF AND DUP2 MSTORE PUSH1 0x20 ADD SWAP1 DUP2 MSTORE PUSH1 0x20 ADD PUSH0 KECCAK256 PUSH1 0x3 ADD SLOAD DUP2 MSTORE PUSH1 0x20 ADD SWAP1 DUP2 MSTORE PUSH1 0x20 ADD PUSH0 KECCAK256 PUSH0 DUP3 ADD MLOAD DUP2 PUSH0 ADD SSTORE PUSH1 0x20 DUP3 ADD MLOAD DUP2 PUSH1 0x1 ADD SSTORE SWAP1 POP POP PUSH0 PUSH0 CALLER PUSH20 0xFFFFFFFFFFFFFFFFFFFFFFFFFFFFFFFFFFFFFFFF AND PUSH20 0xFFFFFFFFFFFFFFFFFFFFFFFFFFFFFFFFFFFFFFFF AND DUP2 MSTORE PUSH1 0x20 ADD SWAP1 DUP2 MSTORE PUSH1 0x20 ADD PUSH0 KECCAK256 PUSH1 0x3 ADD PUSH0 DUP2 SLOAD DUP1 SWAP3 SWAP2 SWAP1 PUSH2 0x453 SWAP1 PUSH2 0x725 JUMP JUMPDEST SWAP2 SWAP1 POP SSTORE POP DUP3 PUSH20 0xFFFFFFFFFFFFFFFFFFFFFFFFFFFFFFFFFFFFFFFF AND PUSH2 0x8FC DUP4 SWAP1 DUP2 ISZERO MUL SWAP1 PUSH1 0x40 MLOAD PUSH0 PUSH1 0x40 MLOAD DUP1 DUP4 SUB DUP2 DUP6 DUP9 DUP9 CALL SWAP4 POP POP POP POP ISZERO DUP1 ISZERO PUSH2 0x49B JUMPI RETURNDATASIZE PUSH0 PUSH0 RETURNDATACOPY RETURNDATASIZE PUSH0 REVERT JUMPDEST POP POP POP POP JUMP JUMPDEST PUSH1 0x40 MLOAD DUP1 PUSH1 0x40 ADD PUSH1 0x40 MSTORE DUP1 PUSH0 DUP2 MSTORE PUSH1 0x20 ADD PUSH0 DUP2 MSTORE POP SWAP1 JUMP JUMPDEST PUSH0 PUSH0 REVERT JUMPDEST PUSH0 PUSH20 0xFFFFFFFFFFFFFFFFFFFFFFFFFFFFFFFFFFFFFFFF DUP3 AND SWAP1 POP SWAP2 SWAP1 POP JUMP JUMPDEST PUSH0 PUSH2 0x4E6 DUP3 PUSH2 0x4BD JUMP JUMPDEST SWAP1 POP SWAP2 SWAP1 POP JUMP JUMPDEST PUSH2 0x4F6 DUP2 PUSH2 0x4DC JUMP JUMPDEST DUP2 EQ PUSH2 0x500 JUMPI PUSH0 PUSH0 REVERT JUMPDEST POP JUMP JUMPDEST PUSH0 DUP2 CALLDATALOAD SWAP1 POP PUSH2 0x511 DUP2 PUSH2 0x4ED JUMP JUMPDEST SWAP3 SWAP2 POP POP JUMP JUMPDEST PUSH0 PUSH1 0x20 DUP3 DUP5 SUB SLT ISZERO PUSH2 0x52C JUMPI PUSH2 0x52B PUSH2 0x4B9 JUMP JUMPDEST JUMPDEST PUSH0 PUSH2 0x539 DUP5 DUP3 DUP6 ADD PUSH2 0x503 JUMP JUMPDEST SWAP2 POP POP SWAP3 SWAP2 POP POP JUMP JUMPDEST PUSH0 DUP2 SWAP1 POP SWAP2 SWAP1 POP JUMP JUMPDEST PUSH2 0x554 DUP2 PUSH2 0x542 JUMP JUMPDEST DUP3 MSTORE POP POP JUMP JUMPDEST PUSH0 PUSH1 0x60 DUP3 ADD SWAP1 POP PUSH2 0x56D PUSH0 DUP4 ADD DUP7 PUSH2 0x54B JUMP JUMPDEST PUSH2 0x57A PUSH1 0x20 DUP4 ADD DUP6 PUSH2 0x54B JUMP JUMPDEST PUSH2 0x587 PUSH1 0x40 DUP4 ADD DUP5 PUSH2 0x54B JUMP JUMPDEST SWAP5 SWAP4 POP POP POP POP JUMP JUMPDEST PUSH2 0x598 DUP2 PUSH2 0x542 JUMP JUMPDEST DUP2 EQ PUSH2 0x5A2 JUMPI PUSH0 PUSH0 REVERT JUMPDEST POP JUMP JUMPDEST PUSH0 DUP2 CALLDATALOAD SWAP1 POP PUSH2 0x5B3 DUP2 PUSH2 0x58F JUMP JUMPDEST SWAP3 SWAP2 POP POP JUMP JUMPDEST PUSH0 PUSH0 PUSH1 0x40 DUP4 DUP6 SUB SLT ISZERO PUSH2 0x5CF JUMPI PUSH2 0x5CE PUSH2 0x4B9 JUMP JUMPDEST JUMPDEST PUSH0 PUSH2 0x5DC DUP6 DUP3 DUP7 ADD PUSH2 0x503 JUMP JUMPDEST SWAP3 POP POP PUSH1 0x20 PUSH2 0x5ED DUP6 DUP3 DUP7 ADD PUSH2 0x5A5 JUMP JUMPDEST SWAP2 POP POP SWAP3 POP SWAP3 SWAP1 POP JUMP JUMPDEST PUSH2 0x600 DUP2 PUSH2 0x542 JUMP JUMPDEST DUP3 MSTORE POP POP JUMP JUMPDEST PUSH1 0x40 DUP3 ADD PUSH0 DUP3 ADD MLOAD PUSH2 0x61A PUSH0 DUP6 ADD DUP3 PUSH2 0x5F7 JUMP JUMPDEST POP PUSH1 0x20 DUP3 ADD MLOAD PUSH2 0x62D PUSH1 0x20 DUP6 ADD DUP3 PUSH2 0x5F7 JUMP JUMPDEST POP POP POP POP JUMP JUMPDEST PUSH0 PUSH1 0x40 DUP3 ADD SWAP1 POP PUSH2 0x646 PUSH0 DUP4 ADD DUP5 PUSH2 0x606 JUMP JUMPDEST SWAP3 SWAP2 POP POP JUMP JUMPDEST PUSH0 PUSH2 0x656 DUP3 PUSH2 0x4BD JUMP JUMPDEST SWAP1 POP SWAP2 SWAP1 POP JUMP JUMPDEST PUSH2 0x666 DUP2 PUSH2 0x64C JUMP JUMPDEST DUP2 EQ PUSH2 0x670 JUMPI PUSH0 PUSH0 REVERT JUMPDEST POP JUMP JUMPDEST PUSH0 DUP2 CALLDATALOAD SWAP1 POP PUSH2 0x681 DUP2 PUSH2 0x65D JUMP JUMPDEST SWAP3 SWAP2 POP POP JUMP JUMPDEST PUSH0 PUSH0 PUSH1 0x40 DUP4 DUP6 SUB SLT ISZERO PUSH2 0x69D JUMPI PUSH2 0x69C PUSH2 0x4B9 JUMP JUMPDEST JUMPDEST PUSH0 PUSH2 0x6AA DUP6 DUP3 DUP7 ADD PUSH2 0x673 JUMP JUMPDEST SWAP3 POP POP PUSH1 0x20 PUSH2 0x6BB DUP6 DUP3 DUP7 ADD PUSH2 0x5A5 JUMP JUMPDEST SWAP2 POP POP SWAP3 POP SWAP3 SWAP1 POP JUMP JUMPDEST PUSH32 0x4E487B7100000000000000000000000000000000000000000000000000000000 PUSH0 MSTORE PUSH1 0x11 PUSH1 0x4 MSTORE PUSH1 0x24 PUSH0 REVERT JUMPDEST PUSH0 PUSH2 0x6FC DUP3 PUSH2 0x542 JUMP JUMPDEST SWAP2 POP PUSH2 0x707 DUP4 PUSH2 0x542 JUMP JUMPDEST SWAP3 POP DUP3 DUP3 ADD SWAP1 POP DUP1 DUP3 GT ISZERO PUSH2 0x71F JUMPI PUSH2 0x71E PUSH2 0x6C5 JUMP JUMPDEST JUMPDEST SWAP3 SWAP2 POP POP JUMP JUMPDEST PUSH0 PUSH2 0x72F DUP3 PUSH2 0x542 JUMP JUMPDEST SWAP2 POP PUSH32 0xFFFFFFFFFFFFFFFFFFFFFFFFFFFFFFFFFFFFFFFFFFFFFFFFFFFFFFFFFFFFFFFF DUP3 SUB PUSH2 0x761 JUMPI PUSH2 0x760 PUSH2 0x6C5 JUMP JUMPDEST JUMPDEST PUSH1 0x1 DUP3 ADD SWAP1 POP SWAP2 SWAP1 POP JUMP JUMPDEST PUSH0 PUSH2 0x776 DUP3 PUSH2 0x542 JUMP JUMPDEST SWAP2 POP PUSH2 0x781 DUP4 PUSH2 0x542 JUMP JUMPDEST SWAP3 POP DUP3 DUP3 SUB SWAP1 POP DUP2 DUP2 GT ISZERO PUSH2 0x799 JUMPI PUSH2 0x798 PUSH2 0x6C5 JUMP JUMPDEST JUMPDEST SWAP3 SWAP2 POP POP JUMP INVALID LOG2 PUSH5 0x6970667358 0x22 SLT KECCAK256 ISZERO ORIGIN PUSH8 0xCDEF79CD626449AB SSTORE 0xF6 0xEA SWAP13 TSTORE 0x2A GASLIMIT 0xB1 PUSH26 0xA8195E0A9F2ACCE413289ABE64736F6C634300081C0033000000 "
				},
				"gasEstimates": {
					"creation": {
						"codeDepositCost": "401000",
						"executionCost": "434",
						"totalCost": "401434"
					},
					"external": {
						"Deposit()": "infinite",
						"balances(address)": "infinite",
						"getDepositNum(address,uint256)": "infinite",
						"withdraw(address,uint256)": "infinite"
					}
				},
				"methodIdentifiers": {
					"Deposit()": "ed21248c",
					"balances(address)": "27e235e3",
					"getDepositNum(address,uint256)": "55e14fe6",
					"withdraw(address,uint256)": "f3fef3a3"
				}
			},
			"storageLayout": {
				"storage": [
					{
						"astId": 28,
						"contract": "contracts/SampleStructMapping.sol:Struct_Mapping",
						"label": "balances",
						"offset": 0,
						"slot": "0",
						"type": "t_mapping(t_address,t_struct(Balance)23_storage)"
					}
				],
				"types": {
					"t_address": {
						"encoding": "inplace",
						"label": "address",
						"numberOfBytes": "20"
					},
					"t_mapping(t_address,t_struct(Balance)23_storage)": {
						"encoding": "mapping",
						"key": "t_address",
						"label": "mapping(address => struct Struct_Mapping.Balance)",
						"numberOfBytes": "32",
						"value": "t_struct(Balance)23_storage"
					},
					"t_mapping(t_uint256,t_struct(Transaction)6_storage)": {
						"encoding": "mapping",
						"key": "t_uint256",
						"label": "mapping(uint256 => struct Struct_Mapping.Transaction)",
						"numberOfBytes": "32",
						"value": "t_struct(Transaction)6_storage"
					},
					"t_struct(Balance)23_storage": {
						"encoding": "inplace",
						"label": "struct Struct_Mapping.Balance",
						"members": [
							{
								"astId": 8,
								"contract": "contracts/SampleStructMapping.sol:Struct_Mapping",
								"label": "totalBalance",
								"offset": 0,
								"slot": "0",
								"type": "t_uint256"
							},
							{
								"astId": 10,
								"contract": "contracts/SampleStructMapping.sol:Struct_Mapping",
								"label": "numDeposits",
								"offset": 0,
								"slot": "1",
								"type": "t_uint256"
							},
							{
								"astId": 15,
								"contract": "contracts/SampleStructMapping.sol:Struct_Mapping",
								"label": "deposit",
								"offset": 0,
								"slot": "2",
								"type": "t_mapping(t_uint256,t_struct(Transaction)6_storage)"
							},
							{
								"astId": 17,
								"contract": "contracts/SampleStructMapping.sol:Struct_Mapping",
								"label": "numWithdrawals",
								"offset": 0,
								"slot": "3",
								"type": "t_uint256"
							},
							{
								"astId": 22,
								"contract": "contracts/SampleStructMapping.sol:Struct_Mapping",
								"label": "withdrawal",
								"offset": 0,
								"slot": "4",
								"type": "t_mapping(t_uint256,t_struct(Transaction)6_storage)"
							}
						],
						"numberOfBytes": "160"
					},
					"t_struct(Transaction)6_storage": {
						"encoding": "inplace",
						"label": "struct Struct_Mapping.Transaction",
						"members": [
							{
								"astId": 3,
								"contract": "contracts/SampleStructMapping.sol:Struct_Mapping",
								"label": "amout",
								"offset": 0,
								"slot": "0",
								"type": "t_uint256"
							},
							{
								"astId": 5,
								"contract": "contracts/SampleStructMapping.sol:Struct_Mapping",
								"label": "timestamp",
								"offset": 0,
								"slot": "1",
								"type": "t_uint256"
							}
						],
						"numberOfBytes": "64"
					},
					"t_uint256": {
						"encoding": "inplace",
						"label": "uint256",
						"numberOfBytes": "32"
					}
				}
			},
			"userdoc": {
				"kind": "user",
				"methods": {},
				"version": 1
			}
		}
	}
}